:020000040800F2
:10000000A01C00209D010008CD030008C9030008C2
:10001000CB030008870200087508000800000000F4
:100020000000000000000000000000003906000889
:100030008902000800000000CF0300081D07000827
:10004000B7010008B7010008B7010008B7010008B0
:10005000B7010008B7010008B7010008B7010008A0
:10006000B7010008B7010008B7010008B701000890
:10007000B7010008B7010008B7010008B701000880
:10008000B7010008B7010008B7010008B701000870
:10009000B7010008B7010008B7010008B701000860
:1000A000B7010008B7010008B7010008B701000850
:1000B000B7010008B7010008B7010008B701000840
:1000C000B7010008B7010008B7010008B701000830
:1000D000B7010008B7010008B7010008B701000820
:1000E000B7010008B7010008B7010008B701000810
:1000F000B7010008B7010008B7010008B701000800
:10010000B7010008B7010008B7010008B7010008EF
:10011000B7010008B7010008B7010008B7010008DF
:10012000B7010008B7010008B7010008B7010008CF
:10013000B7010008B7010008B7010008B7010008BF
:10014000B7010008B7010008B7010008B7010008AF
:10015000B7010008B7010008B7010008B70100089F
:10016000B7010008B7010008B7010008B70100088F
:10017000B7010008B7010008B7010008B70100087F
:10018000B7010008B7010008DFF80CD000F04AF80A
:100190000048004749140008A01C0020064880477A
:1001A00006480047FEE7FEE7FEE7FEE7FEE7FEE75C
:1001B000FEE7FEE7FEE7FEE72D07000889010008DD
:1001C0002DE9F05F0546002092469B46884606468C
:1001D000814640241BE0284641464746224600F01F
:1001E00042F853465A46C01A914110D31146184658
:1001F000224600F029F82D1A67EB01084F462246E7
:100200000120002100F020F817EB00094E41201ECC
:10021000A4F10104DFDC484631462A464346BDE8E6
:10022000F09F0000064C074D06E0E06840F0010337
:1002300094E8070098471034AC42F6D3FFF7A8FFC4
:1002400088210008A8210008202A04DB203A00FAAF
:1002500002F1002070479140C2F1200320FA03F31D
:10026000194390407047202A04DB203A21FA02F01B
:100270000021704721FA02F3D040C2F120029140E0
:10028000084319467047FEE77047000070B586B016
:100290000121084600F09CF80121102000F0A6F88A
:1002A0001E4E07220A21304600F07AF80722092163
:1002B000304600F075F800248DF8164001208DF8C6
:1002C000170002258DF81450410204918DF8155045
:1002D00004A9304600F026F88DF814506802049006
:1002E00004A9304600F01EF84FF4E1300090ADF85C
:1002F0000440ADF80640ADF80840ADF80C400C20C5
:10030000ADF80A00064C6946204600F051FA01217A
:10031000204600F039FA06B070BD0000000002402F
:10032000001001402DE9F041002201274FF0030C9D
:1003300007FA02F50B682B40AB422CD1066853003C
:100340000CFA03F4A64306600E79D0F800809E40B4
:1003500046EA080606600E79012E01D0022E12D15F
:100360008668A64386604E79D0F808809E4046EAAB
:10037000080686604668AE43466045688E799640BA
:10038000B6B235434560C568A543C560CC799C408D
:10039000C3681C43C460521C102AC9D3BDE8F08155
:1003A00010B54B07DB0E9A40C90800EB8100016ACB
:1003B0000F249C40A1430162016A1143016210BDF8
:1003C0004183704701837047FEE7FEE7704770473F
:1003D000054A002903D01168014311607047116874
:1003E000814311607047000030380240054A0029FF
:1003F00003D0116801431160704711688143116097
:10040000704700004438024070B5244B196801F071
:100410000C01234C00291ED0661004291DD0082988
:100420001DD00460196801F0F00109091D4A545CEF
:100430000168E14041601C6804F4E054A40A145DC2
:1004400021FA04F484601B6803F460435B0BD25C04
:10045000D140C16070BD0460E4E70660E2E70F4A86
:10046000121F1168C1F38055116801F03F0135B1C9
:10047000B6FBF1F11468C4F38814614305E0B4FBE2
:10048000F1F11468C4F3881461431268C2F30142A5
:10049000521C5200B1FBF2F10160C3E70838024080
:1004A0000024F4001400002010210148FFF78ABF47
:1004B0000000024010210148FFF782BF0000024007
:1004C000002904D0018841F0400101807047018873
:1004D00021F040010180704710B586B000F02EF881
:1004E0000020ADF81000ADF804004FF48271ADF8B3
:1004F0000610ADF808000221ADF80A100121ADF890
:100500000C104902ADF80E10ADF812000720ADF83E
:100510001400054C01A9204600F058F8012120469E
:10052000FFF7CEFF06B010BD00300140012080F380
:1005300010887047002080F3108870477CB5012137
:100540000803FFF753FF01210320FFF741FF1D4D73
:10055000052203212846FFF723FF05220421284610
:10056000FFF71EFF052211462846FFF719FF082056
:10057000009002218DF805108DF8041000218DF8EF
:1005800006108DF8071069462846FFF7CBFE1024A9
:10059000009469462846FFF7C5FE20210091694670
:1005A0002846FFF7BFFE009401208DF80400064C9A
:1005B00069462046FFF7B6FE10212046FFF702FFEE
:1005C0007CBD0000000402400000024030B50288FB
:1005D00002F441530A884C88CD8822438C882C43EE
:1005E00022430C8922434C8922438C892243CC89A3
:1005F00022431A430280828B22F400628283098A9A
:10060000018230BD054801898907FCD5FF21818120
:100610000189C907FCD08089C0B270470030014011
:1006200004490A899207FCD588810889C007FCD053
:100630008889704700300140704700000CB50022E7
:10064000019200922749086840F4803008604FF416
:10065000A043086800F4003000900198401C01900D
:10066000009810B901989842F3D10868800302D528
:100670000120009000E000920098012831D1194833
:100680004030026842F0805202601748026842F42B
:10069000404202601348083002680260026842F477
:1006A00000420260026842F4A0520260021F0F4B37
:1006B00013600A6842F080720A600A689201FCD5F1
:1006C0000B4A40F205711160016821F003010160DD
:1006D000016841F0020101600168C1F38101022952
:1006E000FAD10CBD00380240007000401954400798
:1006F000003C02404FF0E021042804D0086920F0BB
:10070000040008617047086940F004000861704700
:100710000148C068704700002400002002480168BA
:10072000491C0160704700003000002010B51248DD
:10073000016841F4700101601048016841F0010155
:1007400001600E4A00210832116002680C4B1A4009
:100750000260031D0B4A1A60026822F480220260C4
:1007600006480C300160FFF769FF03494FF0006055
:100770008039086010BD000088ED00E000380240BC
:10078000FFFFF6FE10300024002904D0818941F4D7
:10079000005181817047818921F400518181704726
:1007A0000246002012880A4200D001207047000053
:1007B0007FB504460D46208A20F44051E88808435E
:1007C0002082A08941F20C618843A9882A891143BB
:1007D0006A8902431143A181A08A20F44071A8894B
:1007E0000843A0826846FFF70FFE1E48844202D0ED
:1007F0001D48844201D1039800E00298A1890904B0
:1008000008D500EBC00101EB001029684900B0FBDE
:10081000F1F007E000EBC00101EB0010296889004E
:10082000B0FBF1F06422B0FBF2F109010B096FF0AB
:1008300018056B4300EB8300A3891D044FF03203BE
:1008400007D503EBC000B0FBF2F000F0070008434F
:1008500006E003EB0010B0FBF2F000F00F000843DD
:1008600020817FBD0010014000140140C1F3080148
:1008700081807047FEE7000070B505460C4CA0680B
:10088000804720698047E169C5F307408847E169EF
:10089000C5F307208847E169E8B28847A069804727
:1008A000054661698847E1688847284670BD0000B1
:1008B000540000202DE9F04180460E4617460024E2
:1008C0000F4DA868804728698047E969C8F3074049
:1008D0008847E969C8F307208847E96908F0FF00FD
:1008E000884704E0A86980473055641CA4B2BC4224
:1008F000F8D368698047E868BDE8F0410047000028
:100900005400002070B505460E460D4CA068804787
:100910002069804745F00405E269C5F30740904728
:10092000E269C5F307209047E269E8B29047E269BF
:100930003046904760698047E068BDE870400047F6
:10094000540000202DE9F04105460F469046002452
:100950000F4EB16888473169884745F00405F16951
:10096000C5F307408847F169C5F307208847F16957
:10097000E8B2884704E0F369385D9847641CA4B284
:100980004445F8D370698047F068BDE8F0410047FE
:10099000540000200FB4054B10B503A9044A029877
:1009A00000F018F810BC5DF814FB00006511000899
:1009B0008800002002E008C8121F08C1002AFAD1EE
:1009C00070477047002001E001C1121F002AFBD1CF
:1009D000704700002DE9FF4F8DB00F4605460026F9
:1009E00006E025280BD0DDE90F1290476D1C761C20
:1009F00028780028F5D111B03046BDE8F08F0024EA
:100A0000A246A1460122EC4900E0044315F8013F4B
:100A1000203B02FA03F00842F7D128782A2810D0A8
:100A20006FF02F022878A0F13001092914D80AEBC1
:100A30008A0102EB410144F0020400EB010A6D1C43
:100A4000F0E701CF5FEA000A03D544F40054CAF18D
:100A5000000A44F002046D1C28782E2817D115F8DE
:100A6000010F44F004042A280ED06FF02F022878DA
:100A7000A0F1300109290AD809EB890102EB4101F3
:100A800000EB01096D1CF2E757F8049B6D1C2878F8
:100A90006C280FD006DC4C2817D068280DD06A28A7
:100AA00014D104E0742810D07A280FD10DE044F45A
:100AB00000140AE044F4801401E044F4401469781E
:100AC000814202D104F580146D1C6D1C2A786E2AB7
:100AD0001FD00CDC632A31D004DC002A8BD0582ACA
:100AE00011D1A3E0642A68D0692A0CD165E0732A89
:100AF0002ED004DC6F2A73D0702A04D19BE0752AB3
:100B00006FD0782A6ED01046DDE90F129047761C20
:100B100050E1C4F30250022806D0032809D004286B
:100B200001CF09D0066045E101CFF117C0E90061AE
:100B300040E101CF06803DE106703BE117F8040B70
:100B40008DF8000000208DF80100EB46012003E045
:100B500057F804BB4FF0FF3061074FF0000102D49B
:100B60000DE008F10101884649450FDA8045F8DBC0
:100B70001BF808100029F4D108E008F101018846AB
:100B80008142FADB1BF808100029F6D1DDE90F23BA
:100B9000AAEB08008146214600F036F9304400EB0C
:100BA000080604E0DDE90F121BF8010B9047B8F1CD
:100BB0000108F7D221464846F7E00A21C4F3025360
:100BC0004FF0000B0891022B04D001CFC117032B6B
:100BD00009D00AE0FF1D27F00707F7E8020108E047
:100BE00032E01FE020E000B2C117042B01D140B277
:100BF000C117031E71F1000307DA4FF0000CD0EBB0
:100C00000C006CEB01012D2302E0230504D52B23FE
:100C10008DF82430012303E0E30701D02023F7E718
:100C2000984658E00A2110E010210EE010204FF005
:100C3000000B08900CE010214FF0000B44F004046E
:100C40004FF00809089103E008214FF0000B0891CC
:100C5000C4F30253022B04D001CF0021032B06D092
:100C600006E0FF1D27F00707F7E8020103E080B266
:100C7000042B00D1C0B24FF0000823072BD5702AF7
:100C800007D0DDF820C08CF0100C5CEA0B0C05D00E
:100C90000EE040238DF82430012308E050EA0103E0
:100CA00006D030238DF824308DF825200223984675
:100CB000DDF820C08CF0080C5CEA0B0C0BD150EA7C
:100CC000010301D1630706D530238DF824304FF09E
:100CD0000108A9F10109582A04D038A20B9208AAE8
:100CE0000A920BE03AA2F9E75B46089AFFF768FA26
:100CF0000B9B9B5C0A9A521E0A92137050EA0102E7
:100D0000F2D10A98ADEB000000F1200B600702D58C
:100D100024F4803401E04FF00109D94502DDA9EB4C
:100D20000B0000E0002000EB0B0141440890AAEB0F
:100D3000010AE00306D4DDE90F232146504600F006
:100D400063F806444FF0000908E009A911F809000A
:100D5000DDE90F12904709F10109761CC145F4DB6A
:100D6000E0030CD5DDE90F232146504600F04CF896
:100D7000064404E0DDE90F1230209047761C089904
:100D8000481E08900029F5DC08E00A980A990078C6
:100D9000491C0A91DDE90F129047761CBBF1000156
:100DA000ABF1010BF1DC21465046DDE90F2300F0E9
:100DB00019F806446D1C1BE6092801003031323356
:100DC0003435363738396162636465660000000087
:100DD0003031323334353637383941424344454671
:100DE000000000002DE9F041044600251E4617468C
:100DF000880404D405E039462020B0476D1C641EE9
:100E0000F9D52846BDE8F0812DE9F04104460025DA
:100E10001E469046C80301D5302700E020278804ED
:100E200004D505E041463846B0476D1C641EF9D52F
:100E30002846BDE8F08138B503240DE069460F204F
:100E400000F07AF89DF80000FF2802D09DF800001D
:100E500038BD012000F008F9641EE4B2EED201F0C2
:100E60001CF9142000F000F969460F2000F064F826
:100E70009DF8000038BD00002DE9F0410446082C23
:100E800003D94FF0FF30BDE8F081012707EB84065E
:100E9000380200EBC60510212846FFF733FD28462F
:100EA000FFF7EAFC0028FAD14FF4007000EBC6000F
:100EB0001F21FFF727FD0B49A7408888B84388808A
:100EC0000949002021F814000649891D08554FF4EE
:100ED000407000EBC6042046FFF7CEFC0028FAD194
:100EE0000120D0E7740000208C18002010B50C46BB
:100EF00006281ED2DFE800F003070B101418204666
:100F000000F0FEFF13E0204600F062FF0FE02078C3
:100F1000BDE8104001F020B800F086FF207006E028
:100F2000204601F02BF802E0204600F080FF002070
:100F300010BD4FF0FF3010BD2DE9FC410C460021E3
:100F4000009101914D1E4FF498564FF4A057102870
:100F500070D2DFE800F0080B1A161E2226303B483C
:100F60004B4F6A53586301F020F85EE01CB10094C7
:100F7000009808300190DDE90001BDE8FC4100F077
:100F80006ABF208800F0F4FE4FE000F004FF2080EC
:100F90004BE0208800F0A6FF47E000F00BFF208028
:100FA00043E02088010A3046FFF7ACFC2178384640
:100FB000FFF7A8FC39E03846FFF75EFC05463046EF
:100FC000FFF75AFC05EB002020802EE01A488278BB
:100FD0002270C27862700279A2704279E2708079E0
:100FE0002071617121E001F058F81EE0204601F007
:100FF00069F81AE0204601F012F816E02078BDE802
:10100000FC4101F085B801F03CF8C0B241B2491C86
:1010100001D0207009E02846BDE8FC8101F026F8E7
:10102000C0B241B2491C02D020700020F4E728462B
:10103000F2E7FFE72846EFE75400002010B504462A
:101040006FF00400FFF756FB0649E008087000EB5C
:101050004002C2EBC0104FF6FF7202EAC0004880A7
:1010600010BD00008200002070B54FF40775B0FB82
:10107000F5F1CCB2B0FBF5F105FB110604E0284612
:1010800000F00CF8641EE4B2002CF8D1002E04D05D
:101090003046BDE8704000F001B870BD0B4949888A
:1010A00048434FF0E021486100238B61086940F01C
:1010B000010008610869C20701D0C003FAD50869B8
:1010C00020F0010008618B61704700008200002061
:1010D0002DE9F0410646082E03D94FF0FF30BDE858
:1010E000F081012707EB8604E000FFF7C5FB00F065
:1010F0000F00012801D0B81FF1E74FF4807000EB1A
:10110000C40508212846FFF7FDFB2846FFF7B4FB7E
:101110000028FAD11248B7408188B94381804088BD
:10112000074201D00020DAE74FF4007000EBC4055D
:101130004FF4407000EBC4040AE02846FFF79CFB24
:10114000000705D53046FFF797FE6FF00C00C6E7A5
:101150002046FFF791FB0028EFD10120BFE70000F8
:101160007400002070B50446064DE1B22846FFF732
:101170007DFB80212846FFF713FB0028F9D020468D
:1011800070BD0000001001402DE9F0410027012250
:101190004FF4185102EB800001EBC0054FF41C51D5
:1011A00001EBC0062846FFF767FB04463046FFF711
:1011B00063FB00EB042084B24CB12846FFF75CFBD4
:1011C00007463046FFF758FB00EB072087B2A742DF
:1011D000E8D13846BDE8F0812DE9F0410027012231
:1011E000510302EB800001EBC0054FF4045101EB09
:1011F000C0062846FFF740FB04463046FFF73CFB9D
:1012000000EB042084B24CB12846FFF735FB0746BB
:101210003046FFF731FB00EB072087B2A742E8D149
:101220003846BDE8F08100002DE9FF41334E00272C
:10123000B51C002830D032A0FFF7ACFB777000F06F
:101240002CFF0A20FFF710FF00F096FA002441F26D
:10125000883601274FF44078E0B2FFF70DFE0A20F0
:10126000FFF702FFA01982B2E0B20023012100F0D3
:1012700087FCE0B200F0A8F807EB840008EBC000A0
:10128000FFF7FAFA2855214624A0FFF783FB641CD8
:10129000032CE1DBBDE8FF817078401CC1B27170A6
:1012A0002AA0FFF777FB0024E0B2FFF711FF05202B
:1012B000FFF7DAFEE0B2FFF7DFFD2F5521462EA043
:1012C000FFF768FB641C032CEEDB70780128E1D982
:1012D00034A0FFF75FFB00F068FE0520FFF7C4FEB7
:1012E0003848D0E905230169C0698DE80E000390F4
:1012F00069460120FFF720FECCE700002400002013
:101300004E6574776F726B206361626C6520636FEA
:101310006E6E65637465640D0A000000536F636B45
:101320006574202564207265696E697469616C69F1
:101330007A6564206166746572206361626C652001
:101340007265636F6E6E6563740D0A004E65747727
:101350006F726B206361626C6520646973636F6E8A
:101360006E65637465642028636F756E743A20251A
:1013700064290D0A00000000536F636B657420251B
:101380006420636C6F7365642064756520746F20DE
:101390006361626C6520646973636F6E6E6563740C
:1013A0000D0A0000506572666F726D696E67206687
:1013B000756C6C20636869702072657365742E2E7D
:1013C0002E0D0A006821000870B50646082E02D9C5
:1013D0004FF0FF3070BD012000EB8604E000FFF706
:1013E0004BFA00F00F00012802D06FF0040070BD2E
:1013F0004FF4407000EBC4052846FFF73DFA132870
:1014000002D06FF0020070BD4FF4807000EBC40496
:1014100002212046FFF776FA2046FFF72DFA002832
:10142000FAD103E02046FFF727FA30B12846FFF74C
:1014300023FA1428F6D1012070BD3046FFF71CFDB9
:101440006FF0030070BD00001FB56F4890E80E00FC
:10145000C0688DE80E00039000F02AFA6B496C48D2
:1014600000F0C0FA6B496C4800F0CEFA6B496C484A
:1014700000F0DCFA69460120FFF75EFD401C08D051
:10148000FFF7D9FCDFF89CB18BF8000028B166A10A
:1014900004E068A0FFF77EFAFEE76DA170A0FFF7F9
:1014A00079FA00F069F900245E4F4FF4407941F277
:1014B0008836BF1C4FF00108A519AAB2E0B200237C
:1014C000012100F05DFBE0B2FFF77EFF08EB840036
:1014D00009EBC000FFF7D0F938552A46214668A02D
:1014E000FFF758FA641C032CE6DB4FF4007A82E025
:1014F000FFF7A1FC04462878844200D17CB920463D
:10150000FFF792FE2C7054B91420FFF7ADFDFFF7E2
:1015100092FC04461CB12046FFF786FE2C70FFF7B4
:10152000F7F8A860002408EB840B09EBCB00FFF769
:10153000A3F90546385DA8422FD0DDB1132D04D0A4
:10154000172D0AD01C2D27D10CE0214655A0FFF7FE
:1015500021FAE0B2FFF738FF1EE0214657A0FFF75F
:1015600019FA19E021465DA0FFF714FAE0B2FFF77F
:10157000AFFD11E0214663A0FFF70CFAA01982B27B
:10158000E0B20023012100F0FBFAE0B2FFF71CFFFC
:10159000214666A0FFF7FEF93D55172D25D10AEB30
:1015A000CB052846FFF768F9C00703D0284601217C
:1015B000FFF7A8F9E0B2FFF7E7FD0246AAB16548D8
:1015C00000EBC425E0B2294600F094F91FFA80FB35
:1015D000BBF1000F09D02A4621465FA0FFF7DAF9D8
:1015E0002946E0B25A4600F037FA641C032C9ADB15
:1015F0000A20FFF739FDFFF78BF80A4DA968401A5A
:10160000B0F5167F8ED973E768210008350500080C
:101610002D050008A9040008B504000821060008EB
:101620000506000824000020436F6E6E6563746534
:101630006400000057495A4348495020496E697474
:1016400069616C697A6564206661696C2E0D0A00B7
:10165000446973636F6E6E656374656400000000B7
:10166000496E697469616C20504859204C696E6BF1
:10167000205374617475733A2025730D0A000000BD
:10168000536F636B6574202564206C697374656E99
:10169000696E67206F6E20706F72742025640D0A6A
:1016A00000000000536F636B657420256420696E31
:1016B000697469616C697A65640D0A00436C6965D7
:1016C0006E7420636F6E6E656374656420746F2042
:1016D000736F636B65742025640D0A00436C696544
:1016E0006E7420646973636F6E6E656374656420E5
:1016F00066726F6D20736F636B65742025640D0ACD
:1017000000000000536F636B657420256420636CD8
:101710006F7365642C207265696E697469616C69A8
:101720007A696E672E2E2E0D0A000000536F636BD0
:101730006574202564207265696E697469616C69DD
:101740007A656420616E64206C697374656E696E7D
:10175000670D0A008C000020526563656976656438
:101760002066726F6D20736F636B65742025643A19
:101770002025730D0A00000010B586B02049002016
:10178000FFF7B4FB1E490120FFF7B0FB04A90820B6
:10179000FFF7D2FB04A91BA0FFF7FCF8184C217936
:1017A0006079E278CDE900210290A378627821780F
:1017B0001AA0FFF7EFF8607A0090237AE279A17916
:1017C00020A0FFF7E7F8607C0090237CE27BA17B00
:1017D00021A0FFF7DFF8607B0090237BE27AA17AFB
:1017E00022A0FFF7D7F8607D0090237DE27CA17CEA
:1017F00023A0FFF7CFF827A0FFF7CCF806B010BD65
:10180000340000200D0A3D3D3D202573204E4554F7
:1018100020434F4E46203D3D3D0D0A004D41433A89
:1018200020253032583A253032583A253032583A4D
:10183000253032583A253032583A253032580D0A80
:10184000000000005349503A2025642E25642E25BF
:10185000642E25640D0A00004741523A2025642E6B
:1018600025642E25642E25640D0A00005355423A46
:101870002025642E25642E25642E25640D0A000083
:10188000444E533A2025642E25642E25642E25646B
:101890000D0A00003D3D3D3D3D3D3D3D3D3D3D3D55
:1018A0003D3D3D3D3D3D3D3D3D3D0D0A00000000BF
:1018B00010B5FEF7EBFCFEF70FFEA820FFF7BEFB0E
:1018C0000A484FF47A710068B0FBF1F0401EB0F1A5
:1018D000807F09D24FF0E0214861054AF020107066
:1018E000002088610720086110BD00000000002072
:1018F00023ED00E02DE9F74F07461646082F03D9E0
:101900004FF0FF30BDE8FE8F4FF0010A0AEB87056C
:10191000E800FEF7B1FF00F00F00012802D06FF0E1
:101920000400EFE79EB14FF4F05000EBC500FEF766
:10193000A3FF4FF6FF7101EA8020B04200D20646B5
:101940004FF440706FF0060B00EBC5093DE06FF0FF
:101950000D00D7E71C2804D03846FFF78DFA58460B
:10196000D0E7CCB93846FFF737FC80464FF4F85043
:1019700000EBC500FEF780FFB8EB802F04D138469E
:10198000FFF77AFA5846BDE715490AFA07F0498881
:10199000084200D0BCB1C4B1B44200D2264632469F
:1019A0003846019900F078F94FF4807000EBC504D7
:1019B00040212046FEF7A6FF2046FEF75DFF0028E7
:1019C000FAD130469EE700209CE73846FFF7DCFB63
:1019D00004464846FEF750FF1728D5D0BAE7000066
:1019E00074000020054A002803D011B19060D16036
:1019F0007047034890600348D0607047540000204F
:101A00008F1D0008911D0008054A002803D011B160
:101A1000106151617047034810610348506170477D
:101A200054000020951D0008931D000810B5074CB8
:101A300022889305FDD518B111B1A061E16110BDF7
:101A40000348A0610348E06110BD0000540000207D
:101A5000A51F0008A91F00082DE9F74F814614466D
:101A6000B9F1080F03D94FF0FF30BDE8FE8F012513
:101A700005EB8906F000FEF7FFFE00F00F000128DD
:101A800001D0A81FF1E774B14FF4407000EBC60815
:101A90004046FEF7F1FE6FF0060B172806D01C2813
:101AA00004D05846E1E76FF00D00DEE7DFF8CCA088
:101AB00005FA09F5BAF80400054213D04FF4007096
:101AC00000EBC6073846FEF7D7FE00F01F00C10640
:101AD00016D538461021FEF715FFBAF80400A843C2
:101AE000AAF804004FF4F85000EBC600FEF7C4FE5D
:101AF0004FF6FF7101EA8020844235D9044633E075
:101B0000000705D54846FFF7B7F96FF00C00ACE7C2
:101B10000020AAE71C2804D04846FFF7ADF9584634
:101B2000A3E7BAF80200054203D0BC4201D9002065
:101B30009BE7BC4218D822464846019900F0E0F8DD
:101B40004FF4807000EBC60620213046FEF7DAFE27
:101B50003046FEF791FE0028FAD1BAF8040005439A
:101B6000AAF80450204680E74846FFF735FB0746B1
:101B70004046FEF781FE1728D3D0CBE77400002043
:101B80002DE9F04705460E4617461C46082D03D999
:101B90004FF0FF30BDE8F087012E06D0022E04D0B2
:101BA000042E02D06FF00400F4E714F0060F6FF07B
:101BB0000500EFD184B1012E02D0022E0CD103E03A
:101BC00014F0210FE6D007E0A10601D52106E1D5EA
:101BD000E10601D52106DDD52846FFF74DF904F0D1
:101BE000F00131434FF0010909EB8506F000FEF7E3
:101BF00089FEDFF89C806FB9B8F80070781C80B25D
:101C0000A8F80000A0F57F41F03903D14FF440401F
:101C1000A8F800004FF48060390A00EBC600FEF718
:101C200071FE4FF4A060F9B200EBC600FEF76AFE49
:101C30004FF4807000EBC60701213846FEF762FEC4
:101C40003846FEF719FE0028FAD104F00100B8F872
:101C50000210A8400843A8F80200B8F8040009FAE6
:101C600005F920EA0900A8F804000A49002021F833
:101C700015000749891D48554FF4407000EBC60414
:101C80002046FEF7F9FD0028FAD068B282E700008E
:101C9000740000208C1800202DE9F0470646884685
:101CA0001746002F2AD0012000EB86044FF4245061
:101CB00000EBC4000546FEF7DFFD82464FF42050DE
:101CC00000EBC4008146FEF7D7FD0AEB002084B28A
:101CD0002002032101EB860100EBC1003A46414698
:101CE000FEF7E8FDE01984B2210A4846FEF70AFE35
:101CF000E1B22846BDE8F047FEF704BEBDE8F08734
:101D00002DE9F047064688461746002F2AD00120C5
:101D100000EB86044FF4145000EBC4000546FEF7B8
:101D2000ABFD82464FF4105000EBC4008146FEF735
:101D3000A3FD0AEB002084B22002022101EB860100
:101D400000EBC1003A464146FEF7FCFDE01984B2C3
:101D5000210A4846FEF7D6FDE1B22846BDE8F04725
:101D6000FEF7D0BDBDE8F08700787047017070477E
:101D700010B5040A00F0F0014FF4A850FEF7C2FDC0
:101D80002146BDE810404FF4B850FEF7BBBD704788
:101D900070477047704710B54FF4A850FEF76CFDC0
:101DA00000F0F0044FF4B850FEF766FD04EB00209D
:101DB00080B210BD10B54FF4B050FEF75DFD044683
:101DC0004FF4C050FEF758FD04EB002080B210BD68
:101DD00010B50446062221464FF41060FEF76AFD56
:101DE000042204F10E019001FEF764FD042204F1C7
:101DF0000A014FF4A060FEF75DFD0422A11D4FF41F
:101E00007060FEF757FD07480178A1744178E174CE
:101E100081782175C07860750248401E0078A075F1
:101E200010BD00004D0000200020FEF725BD70B55C
:101E300004464FF4D850FEF71FFD20704FF4D050E9
:101E4000FEF71AFD05464FF4C850FEF715FD05EBE9
:101E50000020608070BD2DE9F04780460D460024CB
:101E600000F0A3F8671E0126B8F1000F1CD0002275
:101E700018F80200204444B2521C52B2082AF7DB80
:101E8000102C02DD3846BDE8F08700244FF4F859E5
:101E900006EB840018F8041009EBC000FEF732FDD1
:101EA000641C64B2082CF3DBD5B100230022A85CCB
:101EB000184443B2521C52B2082AF8DB102B01DD41
:101EC0003846E0E700244FF4F05706EB8400295D24
:101ED00007EBC000FEF716FD641C64B2082CF4DBAF
:101EE0000020D0E710B5C1B2040A4FF4B050FEF79D
:101EF00009FD2146BDE810404FF4C050FEF702BD79
:101F000010B50446062221464FF41060FEF71AFD74
:101F1000042204F10E019001FEF714FD042204F1E5
:101F20000A014FF4A060FEF70DFD0422A11D4FF43D
:101F30007060FEF707FD0748A17C0170E17C4170ED
:101F4000217D8170617DC1700249A07D491E0870AC
:101F500010BD00004D00002010B5044634F03A00DA
:101F600002D04FF0FF3010BD0020FEF785FC20436B
:101F700001460020FEF7C6FC002010BD10B5044647
:101F80004FF4D8502178FEF7BDFC6088010A4FF469
:101F9000C850FEF7B7FCA178BDE810404FF4D05010
:101FA000FEF7B0BC002070477047F0B585B04FF425
:101FB0001064062269462046FEF77CFC0422950147
:101FC00004A92846FEF776FC4FF4A066042203A974
:101FD0003046FEF76FFC4FF47067042202A93846C2
:101FE000FEF768FC80210020FEF78CFC0020FEF745
:101FF00043FC062269462046FEF7A4FC042204A9FD
:102000002846FEF79FFC042203A93046FEF79AFCFF
:10201000042202A93846FEF795FC05B0F0BD10B5C4
:1020200004464FF43850FEF727FCC0F380112170AE
:1020300000F0380001210022202811D038280FD0CC
:10204000627010280ED018280CD020280AD0A27058
:10205000082809D0182807D0202805D0E27010BD24
:102060006170EEE7A170F3E7E17010BD10B54FF4B9
:102070003850FEF701FCC00701D0012010BD002040
:1020800010BD10B500244FF43850FEF7F5FB10F0EA
:10209000300F00D00124204610BD10B54FF4385445
:1020A0002046FEF7E9FB20F080012046FEF72AFCDF
:1020B0002046FEF7E1FB40F080012046BDE81040DD
:1020C000FEF720BC10B500210278012A00D1402182
:1020D0004278012A06D0C278012A06D080780128E9
:1020E0000CD00DE041F038010AE08078012802D0E0
:1020F00041F0080104E041F0180101E041F0100155
:102100004FF43850FEF7FEFBBDE81040FFF7C5BFA7
:1021100070B504464FF438552846FEF7ADFB41062E
:102120004FF0FF3601D4304670BD20F03800012C4E
:1021300010D040F038012846FEF7E4FBFFF7ADFF72
:102140002846FEF799FB012C07D010F0380F09D074
:10215000002070BD40F03001EDE710F0300F01D0ED
:10216000002070BD304670BD02020202020202026F
:10217000020202020202020202020202020202023F
:102180000202020202020202A8210008000000204E
:102190008C000000B4090008342200088C000020E4
:1021A000141C0000C4090008007A030A00000000A3
:1021B00000000000010203040607080900000000F7
:1021C00001020304010203040607080900000000DD
:1021D0000000000000000000000000000008DC110A
:1021E0001111C0A867CAFFFFFF00C0A86701080857
:1021F000080801000000000000000000010257353F
:10220000353030008F1D0008911D0008951D000815
:10221000931D0008691D00086D1D000800C0000026
:1022200000000000000000000000000000000000AE
:0422300000000000AA
:040000050800018965
:00000001FF
