:020000040800F2
:10000000F00800209D0100086F090008AB080008F7
:100010006D0900085D070008F10E000800000000EF
:10002000000000000000000000000000810B00083C
:100030005F07000800000000ED0900083D0C000803
:10004000B7010008B7010008B7010008B7010008B0
:10005000B7010008B7010008B7010008B7010008A0
:10006000B7010008B7010008B7010008B701000890
:10007000B7010008B7010008B7010008B701000880
:10008000B7010008B7010008B7010008B701000870
:10009000B7010008B7010008B7010008B701000860
:1000A000B7010008B7010008B7010008B701000850
:1000B000ED0C0008B7010008B7010008B7010008FF
:1000C000B7010008B7010008B7010008B701000830
:1000D000B7010008B7010008B7010008B701000820
:1000E000B7010008B7010008B7010008B701000810
:1000F000B7010008B7010008B7010008B701000800
:10010000B7010008B7010008B7010008B7010008EF
:10011000B7010008B7010008B7010008B7010008DF
:10012000B7010008B7010008B7010008B7010008CF
:10013000B7010008B7010008B7010008B7010008BF
:10014000B7010008B7010008B7010008B7010008AF
:10015000B7010008B7010008B7010008B70100089F
:10016000B7010008B7010008B7010008B70100088F
:10017000B7010008B7010008B7010008B70100087F
:10018000B7010008B7010008DFF80CD000F046FA0C
:100190000048004765200008F00800200648804716
:1001A00006480047FEE7FEE7FEE7FEE7FEE7FEE75C
:1001B000FEE7FEE7FEE7FEE7410C000889010008C4
:1001C000D2B201E000F8012B491EFBD27047002299
:1001D000F6E710B513460A4604461946FFF7F0FF46
:1001E000204610BD421C10F8011B0029FBD1801ACB
:1001F000704730B504460020034600E05B1C934284
:1002000003D2E05CCD5C401BF8D030BD034611F852
:10021000012B00F8012B002AF9D11846704730B5A0
:100220000B46014600202022012409E021FA02F5B4
:100230009D4205D303FA02F5491B04FA02F528444E
:10024000151EA2F10102F1DC30BD2DE9F05F05467B
:10025000002092469B4688460646814640241BE085
:10026000284641464746224600F0F9F953465A4689
:10027000C01A914110D311461846224600F0E0F909
:100280002D1A67EB01084F4622460120002100F09D
:10029000D7F917EB00094E41201EA4F10104DFDC61
:1002A000484631462A464346BDE8F09F2DE9FE4FB9
:1002B000804681EA0300C00F0C46009021F0004107
:1002C00023F00045B8EB0200A94105D24046214683
:1002D00090461C460B46024623F00040104347D090
:1002E000270DC7F30A00C3F30A510290401A019088
:1002F00040286BDAC3F3130040F4801B0098924649
:1003000020B10023D2EB030A63EB0B0B0198594693
:10031000C0F14002504600F093F906460D465046A3
:100320005946019A00F0ABF910EB08006141002436
:1003300087EA115284EAE7731A4340D0009A62B305
:10034000019A012A4FEA075215DC001B61EB0201FA
:100350004FF0004202EA0752CDE90042001C41F58D
:10036000801132462B4600F0ABF903B0BDE8F08FA8
:1003700040462146F9E7001B61EB0201001C41F5F4
:10038000801300185B412018A2F5001747EB03010A
:1003900040EAD570B6196D4111E06D084FEA360696
:1003A00045EAC0754FEA0752001B61EB0201001CD1
:1003B00041F5801149084FEA300000195141324699
:1003C0002B4603B0BDE8F04F00F06BB90098012256
:1003D00040000023D0EB020263EBE073009821465B
:1003E0004FEAE074B8EB000061EB0401E9E783F049
:1003F00000435BE781F0004158E72DE9FE4F81EAB9
:10040000030404F0004421F0004100944FF0000B7D
:1004100023F0004350EA01045ED052EA03045BD0AB
:10042000C3F30A54C1F30A552C44A4F2F3340194E3
:10043000A0FB0254C1F3130141F48011C3F3130371
:1004400043F4801301FB024400FB034E840A970A25
:1004500044EA815447EA8357A4FB076802958D0A52
:1004600005FB07854FEA932C04FB0C542705029DDE
:100470004FEA065847EA1637B5EB08056EEB070C4E
:10048000870E920E47EA811742EA8312A7FB020108
:10049000B6EB0B0164EB00042B0D43EA0C335E1842
:1004A00044EB1C50DA465146E7FB0201C5F3130446
:1004B0004FEA0B3343EA14534FEA0432019C43EAF8
:1004C0000603A4F10C040294009CCDE900B400F0F2
:1004D000F7F803B0BDE8F08F00200146F9E72DE9F9
:1004E000F04D81EA030404F0004B21F0004514466E
:1004F0004FF0000A23F0004150EA050220D054EAF0
:1005000001021DD0C5F30A570246C5F31303C1F318
:100510001300C1F30A5640F4801543F48013A7EB8F
:100520000608101BD64608F2FD3873EB050002D30F
:1005300008F1010801E092185B41B8F1000F03DAFD
:1005400000200146BDE8F08D00204FF480110646E2
:1005500084460EE0171B73EB050705D3121B63EBF4
:10056000050306434CEA010C49084FEA3000921893
:100570005B4150EA0107EDD152EA030012D082EA52
:10058000040083EA0501084305D0101BAB4106D2E5
:100590000122002306E000224FF0004302E06FF04A
:1005A000010253101AEB06004CEB085110EB0A0045
:1005B00041EB0B01BDE8F04D00F073B8C1F30A52F6
:1005C000C1F3130140F2FF3341F480119A4202DA81
:1005D00000200146704740F233439A42A2F2334270
:1005E00002DC524200F03BB800F02AB830B5041EDD
:1005F00071F1000404DB4FF00044404264EB010160
:10060000141E73F1000405DB1C464FF000435242F8
:1006100063EB0403994208BF904230BD064C074D7E
:1006200006E0E06840F0010394E8070098471034C2
:10063000AC42F6D3FFF7ACFD283000084830000884
:10064000202A04DB203A00FA02F100207047914092
:10065000C2F1200320FA03F3194390407047202A87
:1006600004DB203A21FA02F00021704721FA02F35C
:10067000D040C2F120029140084319467047202A19
:1006800006DBCB17203A41FA02F043EAE07306E0BA
:1006900041FA02F3D040C2F12002914008431946CA
:1006A000704710B5141E73F1000408DA401C41F1C4
:1006B000000192185B411A4301D120F0010010BDE6
:1006C0002DE9F04D92469B4611B1B1FA81F202E05C
:1006D000B0FA80F220329046FFF7B2FF04460F4690
:1006E00040EA0A0041EA0B0153465A46084313D038
:1006F000114653EA010019D0C8F140025046FFF7F5
:10070000AEFF05460E46504659464246FFF798FF53
:10071000084305D0012004E020463946BDE8F08DAD
:100720000020054346EAE0762C4337430A986305E8
:10073000E40AA0EB08000022FD0A44EA47540A300C
:1007400002D500200146E9E7010510196941DDE9FC
:10075000084500196941BDE8F04DA2E7FEE7704782
:1007600070B586B00121084600F042F90121102041
:1007700000F05AF91E4E07220A21304600F07AF89E
:1007800007220921304600F075F800248DF8164044
:1007900001208DF8170002258DF8145041020491B4
:1007A0008DF8155004A9304600F026F88DF8145045
:1007B0006802049004A9304600F01EF84FF4E130BE
:1007C0000090ADF80440ADF80640ADF80840ADF833
:1007D0000C400C20ADF80A00064C6946204600F09B
:1007E00025FB0121204600F00DFB06B070BD000086
:1007F00000000240001001402DE9F04100220127D5
:100800004FF0030C07FA02F50B682B40AB422CD1DA
:10081000066853000CFA03F4A64306600E79D0F87C
:1008200000809E4046EA080606600E79012E01D03F
:10083000022E12D18668A64386604E79D0F80880D1
:100840009E4046EA080686604668AE4346604568B4
:100850008E799640B6B235434560C568A543C560FC
:10086000CC799C40C3681C43C460521C102AC9D375
:10087000BDE8F08110B54B07DB0E9A40C90800EBCC
:100880008100016A0F249C40A1430162016A114367
:10089000016210BD0246002012690A4200D0012008
:1008A00070474183704701837047FEE710B50446E7
:1008B00001F094FBC4F3074000F010F8C4F30720E4
:1008C00000F00CF804F0F80000F008F8002000F048
:1008D00005F8044601F085FB204610BD00F036B94E
:1008E00070B504460D4601F079FBC4F30740FFF7ED
:1008F000F5FFC4F30720FFF7F1FF04F0F800001D37
:10090000C0B2FFF7EBFF2846FFF7E8FFBDE87040F5
:1009100001F067BB2DE9FC410121202000F068F8BF
:100920004024009401208DF8040000218DF8061069
:100930008DF807008DF805100B4F69463846FFF714
:100940005BFF8026009669463846FFF755FFA500F5
:10095000009569463846FFF74FFF0348183004807A
:1009600006800580BDE8FC8100140240FEE7704768
:1009700030B50F23C27801250178002A1FD0154A0F
:10098000126802F4E062C2F5E062C2F30722C2F12B
:100990000404D3404278A24084781C4014432201CE
:1009A00001F1E02181F80024007800F01F018D4062
:1009B0004009800000F1E020C0F8005130BD01F096
:1009C0001F0085404809800000F1E020C0F88051F8
:1009D00030BD00000CED00E0024908430249086008
:1009E000704700000000FA050CED00E070470000C1
:1009F000054A002903D0116801431160704711684E
:100A0000814311607047000030380240054A0029D8
:100A100003D0116801431160704711688143116070
:100A20007047000040380240054A002903D0116891
:100A300001431160704711688143116070470000E5
:100A40004438024070B5244B196801F00C01234C66
:100A500000291ED0661004291DD008291DD004606D
:100A6000196801F0F00109091D4A545C0168E14070
:100A700041601C6804F4E054A40A145D21FA04F4F3
:100A800084601B6803F460435B0BD25CD140C1609F
:100A900070BD0460E4E70660E2E70F4A121F1168C8
:100AA000C1F38055116801F03F0135B1B6FBF1F19A
:100AB0001468C4F38814614305E0B4FBF1F11468D1
:100AC000C4F3881461431268C2F30142521C5200FD
:100AD000B1FBF2F10160C3E7083802400024F400E2
:100AE00000000020002904D0018841F0400101806D
:100AF0007047018821F040010180704702460020C4
:100B000012890A4200D00120704780897047818194
:100B1000704730B5028802F441530A884C88CD886A
:100B200022438C882C4322430C8922434C89224344
:100B30008C892243CC8922431A430280828B22F47F
:100B400000628283098A018230BD000070B50546CB
:100B50000A4C02212046FFF7D1FF0028F9D0294690
:100B60002046FFF7D4FF01212046FFF7C7FF0028EA
:100B7000F9D02046FFF7C9FFC0B270BD0038004071
:100B8000704700000CB500220192009227490868C6
:100B900040F4803008604FF4A043086800F400304F
:100BA00000900198401C0190009810B9019898425B
:100BB000F3D10868800302D50120009000E0009284
:100BC0000098012831D119484030026842F0805223
:100BD00002601748026842F440420260134808303D
:100BE00002680260026842F400420260026842F455
:100BF000A0520260021F0F4B13600A6842F080721D
:100C00000A600A689201FCD50B4A40F20571116036
:100C1000016821F003010160016841F002010160F7
:100C20000168C1F381010229FAD10CBD00380240EC
:100C30000070004019544007003C0240704700001B
:100C400010B51248016841F4700101601048016854
:100C500041F0010101600E4A002108321160026872
:100C60000C4B1A400260031D0B4A1A60026822F402
:100C70008022026006480C300160FFF783FF0349C1
:100C80004FF000608039086010BD000088ED00E082
:100C900000380240FFFFF6FE103000243EB501216F
:100CA0000846FFF7B3FE4FF47A7001905320ADF879
:100CB00000000020ADF80800ADF802004FF08044BD
:100CC0006946204600F060F80121204600F034F823
:100CD00001221146204600F04DF80121204600F087
:100CE00031F800210120FFF791FE3EBD10B5012132
:100CF0008C07204600F032F8002807D002F0FCF8FC
:100D00002046BDE81040012100F019B810BD08B51B
:100D10004FF4E060FFF760FE1C208DF8000000201B
:100D20008DF8010003208DF8020001208DF80300EA
:100D30006846FFF71DFE08BDC94301827047C943DD
:100D400001827047002904D0018841F0010101802F
:100D50007047018821F001010180704702460020A0
:100D6000138A0B4092890A40002B02D0002A00D03F
:100D700001207047002A03D082890A43828170478C
:100D800082898A438281704730B50288164C174D9C
:100D9000A0420DD0A8420BD0B0F1804F08D0144B28
:100DA000984205D0134B984202D0134B984203D17E
:100DB00022F070034A881A43104B984206D0104B19
:100DC000984203D022F440730A891A4302804A6889
:100DD000C2620A880285A04201D0A84201D1897A64
:100DE00001860121818230BD0000014000040140E4
:100DF0000004004000080040000C004000100040CB
:100E000000140040002904D0818941F400518181FF
:100E10007047818921F4005181817047024600208A
:100E200012880A4200D00120704700007FB50446B6
:100E30000D46208A20F44051E88808432082A0898A
:100E400041F20C618843A9882A8911436A890243C7
:100E50001143A181A08A20F44071A8890843A0828F
:100E60006846FFF7EFFD1E48844202D01D488442C9
:100E700001D1039800E00298A189090408D500EB8C
:100E8000C00101EB001029684900B0FBF1F007E058
:100E900000EBC00101EB001029688900B0FBF1F004
:100EA0006422B0FBF2F109010B096FF018056B43E6
:100EB00000EB8300A3891D044FF0320307D503EB39
:100EC000C000B0FBF2F000F00700084306E003EBBF
:100ED0000010B0FBF2F000F00F00084320817FBD4E
:100EE0000010014000140140C1F3080181807047E7
:100EF000FEE700000FB4054B10B503A9044A0298A1
:100F000000F0EEF810BC5DF814FB0000F51B0008C3
:100F1000840000200FB4084B10B504A902AA03985E
:100F200000F0DEF8044602A9002000F070FC204624
:100F300010BC5DF814FB00000F18000802E008C8A0
:100F4000121F08C1002AFAD170477047002001E043
:100F500001C1121F002AFBD1704700002DE9FF5F7D
:100F600082B00021DDE90430020DDDF840B003431A
:100F700018D044F61050A2F2FF32424315141198D3
:100F800001281FD0A5EB0B00401C5FEA000A4FF0C0
:100F900000064E4FDFF83891B046504615D5CAF1DD
:100FA000000413E0119801244AA3012801D16FEA3B
:100FB0000B010298119AC0E90031C0E9024206B063
:100FC000BDE8F09FCBF10000DFE704460021404A76
:100FD000491842EB0450CDE9001012E0E00707D0B9
:100FE00032463B4640464946FFF707FA8046894667
:100FF00032463B4610461946FFF7FFF906460F46B4
:101000006410002CEAD1DDE90401DDE90023BAF126
:10101000000F06DAFFF7F1F942464B46FFF7EDF90C
:1010200005E0FFF75CFA42464B46FFF758FA0446E4
:101030000E460022284BFFF7D9FA03D84FF0FF30B5
:10104000014607E00022254B20463146FFF72EF9E6
:10105000FFF7B4FA102409E0002C0ADB0A2200236F
:10106000FFF7F3F8039B30321A55641E50EA010271
:10107000F2D1641C039AC4F111031444119A012A99
:1010800003D0012208430DD10AE0084304D0002018
:101090004FF0110B119072E7A3EB0B056D1E0DE0E5
:1010A0005B4504DD4FF0000205F1010504E003DAC1
:1010B0004FF00002A5F10105002AECD00298119929
:1010C000C0E90231C0E9004579E7000000001440A2
:1010D0000000F03F300000000000F0430000E03F5F
:1010E0002DE9FF4F95B09B468946064600250FE245
:1010F000252877D100242746F84A0121059400E0ED
:10110000044316F8013F203B01FA03F01042F7D1E7
:1011100030782A2811D06FF02F033078A0F13002F8
:10112000092A16D8059A44F0020402EB820203EB66
:1011300042021044761C0590EFE759F8042B059203
:10114000002A03DA504244F40054059044F00204AB
:10115000761C30782E2816D116F8010F44F00404BE
:101160002A280DD06FF02F023078A0F13003092B20
:1011700009D807EB870302EB4303C718761CF3E794
:1011800059F8047B761C30786C280FD006DC4C288C
:1011900017D068280DD06A2814D104E0742810D024
:1011A0007A280FD10DE044F400140AE044F48014CE
:1011B00001E044F440147278824202D104F58014B4
:1011C000761C761C307866280BD013DC582877D034
:1011D00009DC002875D04528F6D04628F4D04728E9
:1011E0001AD19DE118E0632835D0642879D06528AC
:1011F00012D195E1702873D008DC6728F1D06928F6
:101200006FD06E280DD06F2806D1B5E073282CD092
:10121000752875D0782874D05A46179990476D1C58
:1012200075E1C4F30250022809D003280DD0D9F883
:10123000001004280DD00D6009F1040967E1D9F808
:101240000010EA17C1E90052F6E7D9F800100D8046
:10125000F2E70D70F0E719F8041B8DF8001000207C
:101260008DF80100EA46012003E059F804AB4FF085
:10127000FF3061074FF0000102D40DE008F10101D9
:101280008846B9420FDA8045F8DB1AF808100029C1
:10129000F4D108E008F1010188468142FADB1AF82E
:1012A00008100029F6D105985B46A0EB08072146F7
:1012B0003846179A00F094FA284400EB080507E036
:1012C0004DE029E10DE01AF8010B5A4617999047B5
:1012D000B8F10108F7D25B4621463846179A13E168
:1012E00042E00A220092C4F302524FF0000A022A9E
:1012F00008D059F804CB032A4FEAEC710AD00DE06C
:1013000029E02AE009F1070121F00702F2E802C111
:10131000914609E00FFA8CFC4FEAEC71042A03D1E4
:101320004FFA8CFC4FEAEC71002907DA0A460021DB
:10133000DCF1000C61EB02012D2202E0220504D554
:101340002B228DF80420012203E0E20701D02022A5
:10135000F7E7904659E00A2102E010220DE0102143
:101360004FF0000A00910BE010224FF0000A44F009
:1013700004040827009203E008224FF0000A0092BC
:10138000C4F30252022A05D059F804CB0021032AE3
:1013900008D009E009F1070121F00702F2E802C1D3
:1013A000914605E01FFA8CFC042A01D10CF0FF0CD9
:1013B0004FF00008220728D5702806D0009B83F044
:1013C000100353EA0A0305D00EE040228DF80420F2
:1013D000012208E05CEA010206D030228DF80420E8
:1013E0008DF8050002229046009B83F0080353EA23
:1013F0000A030AD15CEA010201D1620705D5302255
:101400008DF804204FF001087F1E582804D034A026
:1014100003900EA802900DE036A0F9E7534660460F
:10142000009AFEF712FF84460398825C0298401EE1
:10143000029002705CEA0100F0D1029806A9081A35
:1014400000F1200A600702D524F4803400E001276F
:10145000574502DDA7EB0A0000E0002000EB0A017F
:10146000009005984144401A0590E00306D45B467D
:101470002146179A059800F0B3F90544002706E0C5
:1014800001A85A46C05D179990476D1C7F1C4745BF
:10149000F6DBE0030CD55B462146179A059800F071
:1014A0009FF9054404E030205A46179990476D1C77
:1014B0000099481E00900029F5DC08E00298029986
:1014C0005A460078491C0291179990476D1CBAF151
:1014D0000001AAF1010AF1DC65E100000928010020
:1014E000303132333435363738396162636465669A
:1014F000000000003031323334353637383941425C
:10150000434445460000000000F058F90544761CAD
:10151000307800287FF4ECAD19B02846BDE8F08F94
:10152000620700D4062709F1070222F0070CFCE845
:101530000223E14603F000485FEA080C02D00FF2F4
:10154000702C0DE05FEA045C02D50FF2682C07E016
:101550005FEAC47C02D00FF2602C01E0AFF2700CA5
:101560004FF0FF3823F00043CDF850C065280CD071
:1015700006DC452809D046281DD047283DD13DE04E
:10158000662818D067287ED138E00021112F01DBB2
:10159000112000E0781CCDE9000106A90EA8FFF794
:1015A000DDFCDDE90F010E9A03910021009207F1A5
:1015B000010A04914DE04FF000400097CDE9011081
:1015C00006A90EA8FFF7CAFCDDE90F0203920E9BE5
:1015D00011990022DDF80CA00093049211B9791C36
:1015E00000EB010AB7EB0A0004D4C0F1FF3007F1A9
:1015F000010A0490AAEB0700019044E0012F00DAF1
:1016000001270021112F01DD112000E03846CDE92E
:10161000000106A90EA8FFF7A1FCDDE90F010E9A53
:101620000391002104910092BA4621070CD403993A
:10163000514500DA8A46BAF1010F05DD009AAAF198
:101640000101515C302908D0B84202DA10F1040FD0
:1016500006DA0121CDE9011015E0AAF10101E9E75F
:10166000002805DC049901440491AAEB000102E082
:10167000411C514500DD8A460499401A401C0190E6
:101680004FF000400290200704D40198504501DB40
:10169000CDF8048000208DF84F0002980DF14F071F
:1016A000B0F1004F25D02B200E9002984FF0020889
:1016B00000280CDA404202902D200E9007E00A210B
:1016C0000298FEF7ACFD3031029007F8011DB8F129
:1016D0000001A8F10108F2DC02980028EFD1791E80
:1016E0000E980870307800F0200040F0450007F8B0
:1016F000020D12A8C01B00F107081498007800B171
:10170000012000EB0A01019801EBE07105984144CA
:10171000401A401E0590E00306D45B462146179A06
:10172000059800F05DF805441498007818B15A4601
:10173000179990476D1CE00324D55B462146179A04
:10174000059800F04DF805441CE00498002807DBDC
:10175000DDE90301884203DD0098405C179901E050
:10176000179930205A469047049805F10105401C0E
:1017700004900198401E019004D12E205A461799DA
:1017800090476D1CBAF10001AAF1010ADDDC05E009
:1017900017F8010B5A46179990476D1CB8F10001D4
:1017A000A8F10108F4DC5B462146179A0598ABE6E0
:1017B0002D0000002B000000200000002DE9F0416A
:1017C000044600251E461746880404D405E0394621
:1017D0002020B0476D1C641EF9D52846BDE8F08175
:1017E0002DE9F041044600251E469046C80301D568
:1017F000302700E02027880404D505E0414638461C
:10180000B0476D1C641EF9D52846BDE8F0810A6812
:10181000531C0B601070704770B5154C607803282E
:101820001DD21449636A0A689A421FD900220A60CD
:1018300005216162401C60702078012807D00228D1
:1018400009D0042812D1BDE8704000F085BFBDE882
:10185000704000F01BBEBDE8704000F07DBF00F09E
:10186000F1FD0125A57000F011FE257070BD00008E
:10187000480000203C0000202DE9F04105460024EE
:10188000284600F006FA38B1284600F0DDF950B1DC
:1018900000F05AFC044606E0002344220221032003
:1018A00001F068FA60B1394D0126002728784FF021
:1018B0000308052860D2DFE800F0060E1A31460062
:1018C0000120BDE8F081AF7000F0BCFD00F0DEFD4E
:1018D0002F712E7051E0022C02D0FFF79DFF4CE0DB
:1018E00000F0B0FD00F038FF0220287045E0052C24
:1018F00004D0062C0ED0FFF78FFF3EE000F0A2FDD3
:1019000000F048F818B185F800800320D9E72E7060
:101910000420D6E700F096FD2E702EE0A86B411C47
:101920002BD01B490968B1EB500F26D9A869006874
:101930006863E86A401CE86200F00EFF042028702B
:1019400000F080FD19E0052C04D0062C10D0FFF724
:1019500063FF12E00D4804223430A969FEF749FC08
:1019600008B10320ADE700F06DFD85F8008004E0CC
:1019700000F068FD2E7000E02F70A878012801D0DB
:1019800000209EE72F7002209BE700004800002007
:101990003C00002008B541F2883000900748112231
:1019A00007A18369032001F029F820B1012000F08C
:1019B00037FE002008BD012008BD000048000020BF
:1019C000434845434B5F49505F434F4E464C494364
:1019D0005400000070B505464FF4847000EB4514C8
:1019E00010212046FEF77CFF2046FEF75FFF00280F
:1019F000FAD14FF4027000EB4510BDE87040FF21B2
:101A0000FEF76EBF0849498848434FF0E02148611E
:101A100000238B61012008610869C20701D0C0035F
:101A2000FAD50B618B6170471000002008490978D6
:101A300048434FF0E021486100238B610120086199
:101A40000869C20701D0C003FAD50B618B617047EA
:101A50001000002001F044BA2DE9F0411948012698
:101A60000670FFF7F7FF184C0025E078012802D137
:101A700000F0BEFAE5700320FFF7FEFE00280ED04E
:101A800002280CD0114F03280BD0042807D110A036
:101A9000FFF730FA257014A0FFF72CFA3D70BDE86F
:101AA000F0813E7001F03AF8124840210180802117
:101AB000821C118081150180BDE8F0410EA0FFF766
:101AC00019BA000024000020480000202500002052
:101AD00020B4D344484350BBF1C8A14950B5D8D62F
:101AE000B7CAA7B0DC0D0A0020D6D8CAD4D6D00D0C
:101AF0000A0000001814024020D2D1B4D344484355
:101B000050B7FECEF1C6F7B3C9B9A6BBF1B5C3490C
:101B100050B5D8D6B70D0A002DE9F04105460C4660
:101B2000164600F001FAA02000F0CCF900F032FADD
:101B300068B9E0B200F0C6F900F02CFA38B900F04C
:101B4000F3F9A12000F0BEF900F024FA20B100F072
:101B50000BFA0020BDE8F0810024771E0BE000F0B6
:101B600089F92855BC4202D000F028F901E000F0C4
:101B700067F9641CA4B2B442F1D300F0F5F9012076
:101B8000E8E72DE9F04780460E46914600254FF4E0
:101B90007A7729E00DB1700716D100F0E5F900243D
:101BA00000F0C2F9A02000F08DF900F0F3F918B1AF
:101BB000641CA4B2BC42F3D3BC420CD0F0B200F01F
:101BC00081F900F0E7F930B918F8050000F07AF96A
:101BD00000F0E0F920B100F0C7F90020BDE8F0877F
:101BE000761CB6B26D1CADB24D45D3D300F0BCF936
:101BF0000120F3E770B50446064DE1B22846FFF731
:101C000073F980212846FFF709F90028F9D020460A
:101C100070BD00000010014004220146900101F057
:101C20008DB90000014931F810007047880000208C
:101C3000014604224FF4706001F080B9014604228D
:101C40004FF4A06001F07AB92DE9F041002742F28B
:101C5000086101EB401542F2087101EB401628467D
:101C6000FEF724FE04463046FEF720FE00EB04207B
:101C700084B24CB12846FEF719FE07463046FEF7FF
:101C800015FE00EB072087B2A742E8D13846BDE831
:101C9000F0814FF4427101EB4010FEF707BE0000E7
:101CA0002DE9F04188B001210220FEF7A1FE0121BB
:101CB0000220FEF79DFE01218E033046FEF7A6FEB0
:101CC0003A4F05220D213846FEF7D4FD05220E219C
:101CD0003846FEF7CFFD05220F213846FEF7CAFD34
:101CE0007010019002258DF809508DF808500024DD
:101CF0008DF80B408DF80A4001A93846FEF77CFDAF
:101D0000019601A93846FEF777FDA803019001A9C5
:101D10003846FEF771FDE802019001268DF8086053
:101D200001A93846FEF768FDADF80C404FF482700B
:101D3000ADF80E00ADF81040ADF81250ADF81460DB
:101D40002802ADF816000820ADF81800ADF81A40CA
:101D50000720ADF81C00DFF8588003A94046FEF7C5
:101D6000D8FE01214046FEF7BDFE102001908DF8FF
:101D700009508DF808608DF80B408DF80A4001A9D4
:101D80003846FEF739FD10213846FEF78CFD40201D
:101D900001908DF809508DF808408DF80B6001A96D
:101DA0003846FEF729FD08B0BDE8F0810004024086
:101DB0000038004001F06CB801F076B870B50E4DF7
:101DC0004FF4007421462846FEF76BFD00F032F810
:101DD000661031462846FEF766FD00F02BF83146C6
:101DE0002846FEF75EFD00F025F821462846BDE8AE
:101DF0007040FEF758BD0000000402401CB50121F0
:101E00000220FEF7F5FD4FF44070009002208DF89F
:101E1000050001208DF804008DF8060000208DF8E3
:101E2000070069460248FEF7E7FC00F09DF81CBD7C
:101E3000000402400020401CC0B22828FBD3704799
:101E400070B50B4C4FF400712046FEF72CFDFFF7E8
:101E5000F1FFA51529462046FEF725FDFFF7EAFF0D
:101E600029462046FEF71DFDBDE87040FFF7E2BFA2
:101E7000000402402DE9F04100240025104E4FF4EB
:101E800000784FF480776006040E39463046FEF73E
:101E90000AFDFFF7CFFF41463046FEF7FBFC08B1D5
:101EA000641CE4B239463046FEF7FBFCFFF7C2FF84
:101EB0006D1CEDB2082DE6D32046BDE8F081000090
:101EC000000402402DE9F04105460024154E4FF470
:101ED00080774FF40078280604D541463046FEF757
:101EE000E2FC03E041463046FEF7DBFCFFF7A2FFD1
:101EF00039463046FEF7D7FCFFF79CFF394630469F
:101F0000FEF7CFFC072C03D141463046FEF7CBFC51
:101F10006806050EFFF78EFF641CE4B2082CDAD3C6
:101F2000BDE8F0810004024070B50E4D4FF400741E
:101F300021462846FEF7B7FC661031462846FEF7D4
:101F4000B2FCFFF777FF21462846FEF7AAFCFFF711
:101F500071FF31462846FEF7A4FCBDE87040FFF74C
:101F600069BF00000004024070B5094D4FF40074D1
:101F700021462846FEF795FC61102846FEF793FCA3
:101F8000FFF758FF21462846BDE87040FEF78BBC9E
:101F90000004024070B5104D4FF4007421462846ED
:101FA000FEF781FCFFF746FF661031462846FEF734
:101FB0007AFCFFF73FFF21462846FEF76BFC08B18D
:101FC000012400E0002431462846FEF76AFCFFF7B2
:101FD00031FF204670BD000000040240002000F0E8
:101FE0009DBF012000F09ABF802000F080BD00005E
:101FF0007FB500250395114C0F48E0626563E561EC
:102000002562FFF7F1FF03A800F081FD03A800F0AF
:1020100069FD03A800F075FDA06802794179C378D5
:10202000CDE90032029183784278017804A0FEF76E
:1020300061FF25707FBD00007856341248000020F3
:102040006D61633D253032783A253032783A25305B
:1020500032783A253032783A253032783A253032A3
:10206000780D0A00B42000F025FFFEF779FBFFF79A
:10207000C5FEFEF74FFC0F48402101808021018002
:102080000C498015891C08800BA0FEF733FF00F077
:10209000E7F9FFF705FE00F057FE1249124800F07D
:1020A000B7FE12A0FEF726FF16A0FEF723FFFFF7EC
:1020B000D3FCFCE7181402402020D2B0BBF0CDF8CE
:1020C000C2E7CACAC5E4B0E620CDF8C2E7B3F5CA94
:1020D000BCBBAF2044656D6F2056312E30200D0AF9
:1020E000000000001C0000201400002020CDF8C2D9
:1020F000E7D2D1CDEAB3C9B3F5CABCBBAFA1ADA19C
:10210000AD0D0A0020D2B0BBF0CDF8C2E7CACAC5F7
:10211000E4B0E5D7F7CEAA44484350BFCDBBA7B63D
:10212000CBA3ACB3A2CAD4B4D344484350B7FECE79
:10213000F1C6F7BBF1C8A14950B5D8D6B7200D0AF2
:1021400000000000FFF736BE2DE9FF470025464E90
:1021500001A90246009102AB0320316B00F094F814
:102160008046306B0178022903D1BDF80410432961
:1021700003D0002004B0BDE8F08706221C30B1680F
:10218000FEF737F830B9F06AFFF714FE316B4A6892
:10219000904201D00020EDE7DFF8CC9009F11C0956
:1021A00009F1040AD9F8000048B1DAF80020029BCE
:1021B0009A4204D0029A904201D00020DAE7B06936
:1021C000096901600027346BF034A044A8F1F008DD
:1021D00015E014F8010B33282DD007DC70B101286D
:1021E00017D003281BD0062806D11EE035280CD0B6
:1021F000362827D0FF2806D014F8015B2C4444452C
:10220000E7D30020B6E73846B4E714F8015B277837
:10221000F4E714F8015BF06821680160EEE714F858
:10222000015B306921680160E8E714F8015B7069BF
:1022300021680160E2E714F8015B2068FFF782FF84
:10224000B063DBE714F8015BD9F8000038B1DAF8C5
:102250000010029A914202D002998842CED12068A1
:10226000F06102983062C9E74800002010B51222E0
:1022700000210448FFF750FCBDE810400A20FFF79A
:10228000D5BB0000C40000202DE9FF4F83B00546F8
:10229000DDF840A01E460024002A7CD042F608004B
:1022A00000EB45184046FEF701FB074642F60810D2
:1022B00000EB45194846FEF7F9FA00EB072087B214
:1022C000380200EB451B0BF1180B082000EB451002
:1022D000FEF7ECFA00F00700022804D0032839D0FA
:1022E000042836D165E0082201A9584600F026FEF0
:1022F0000837BFB29DF8040030709DF8050070707B
:102300009DF80600B0709DF80700F0709DF8080079
:10231000AAF800009DF8091001EB0020AAF80000BF
:102320009DF80A009DF80B1001EB002084B23802E2
:1023300000EB451018302246049900F0FFFD3819D3
:1023400086B2310A4046FEF7CBFAF1B24846FEF7B4
:10235000C7FA59E0062201A9584600F0EFFDBF1D5B
:10236000BFB29DF8040030709DF8050070709DF8B4
:102370000600B0709DF80700F0709DF808009DF809
:10238000091001EB002084B2380200EB4510183030
:102390002246049900E044E000F0D0FD381986B2EE
:1023A000310A4046FEF79CFAF1B24846FEF798FA29
:1023B0002AE0022201A9584600F0C0FDBF1CBEB2AF
:1023C0009DF804009DF805106FF0010202EB00205B
:1023D000084484B240F2EA50844203D913A0FEF7C5
:1023E00089FDFEE7300200EB4510183022460499C3
:1023F00000F0A4FD301986B2310A4046FEF770FAAB
:10240000F1B24846FEF76CFA4FF4847000EB4515C4
:1024100040212846FEF764FA2846FEF747FA0028CE
:10242000FAD107B02046BDE8F08F00006461746106
:102430005F6C656E206F76657220313531340D0A20
:102440000000000004490020086004498862052259
:102450004A624870704700003C000020480000209D
:1024600010B5094C10212046FEF71BFA0220FFF799
:10247000C9FA10212046FEF716FABDE810404FF4C5
:10248000C860FFF7BFBA00000004024070B586B014
:102490005AA0006805905A4C4FF40971206BFDF763
:1024A00096FE206B01250570457006218170002184
:1024B000C170E06AFFF77EFC216B48600020FFF7E7
:1024C0007BFC216B0881E803FFF776FC216BDD3193
:1024D00021F8D30CA068027801F8C12C427801F8E9
:1024E000C02C827801F8BF2CC27801F8BE2C02798A
:1024F00001F8BD2C427901F8BC2C6322CA738222F8
:102500000A7453224A7463228A743522CA740D7580
:1025100007224D753D238B75CA750D7602784A7674
:1025200043780C228B768378CB76C3780B7703794C
:102530000F264B7743798B77CA7741790279CDE9BA
:102540000021C3782FA231A102A8FEF7E3FC02A864
:10255000FDF748FE226B82F8FD0002F1FE0002A9A1
:10256000FDF754FE02A8FDF73DFE123080B237227F
:10257000236B411C184489B280F8EC200622236B9F
:10258000481C194480B281F8EC20226B411C104495
:1025900089B280F8EC500322236B481C194480B2A6
:1025A00081F8EC200622236B411C184489B280F884
:1025B000EC20226B481C114480B281F8EC603A2276
:1025C000236B411C184489B280F8EC203B22236B1A
:1025D000481C194480B281F8EC20226BFF21104482
:1025E00080F8EC104320009005AB4FF409720320F3
:1025F000216B00F003FA06B070BD0000FFFFFFFF83
:10260000480000205735353030000000252E347347
:102610002D253032582530325825303258000000F0
:102620002DE9FC4107464B4E4FF409784146306B8B
:10263000FDF7CDFD306B01250570457006218170D9
:102640000024C470F06AFFF7B5FB316B48600020CE
:10265000FFF7B2FB336B18815C81B4682068D861E6
:10266000A0881884632083F8EC00822183F8ED10A1
:10267000532183F8EE10042183F8EF00352083F80E
:10268000F00083F8F150002F53D04FF004004FF0CA
:10269000070203F8F20F4FF03D0058709A70DD709A
:1026A0002078187160785871A0789871E078D871A6
:1026B00020791872607958724FF036009872D9728A
:1026C000244800F11C0000781873224800F11C0017
:1026D000407858731F4800F11C00807898731D489B
:1026E00000F11C00C278DA734FF01600A3F1F20378
:1026F00012D003F581734FF0320018705970B06931
:10270000017899704178D97081781971C1785971BF
:102710004FF01C00A3F5817318444FF0FF0180F8BF
:10272000EC1009D00A464FF0040101A8FDF748FD5E
:1027300004E04FF00700AAE7F06901904FF0430072
:10274000009001AB42464FF00300316B00F056F9A8
:10275000BDE8FC81480000202DE9F04387B07C4CA7
:102760004FF409773946206BFDF731FD206B0125C9
:1027700005704570062686704FF0000880F80380CB
:10278000E06AFFF717FB216B48600020FFF714FB9E
:10279000216B08812078032805D2E803FFF70CFBA2
:1027A000216B488104E0A1F80A80A0690068C86034
:1027B000A368206BDC30196840F8C01C998820F8A9
:1027C000BC1C632101748221417453220321827451
:1027D0006322C274352202754575072281753D2139
:1027E000C17502764576197881765978C1769978DF
:1027F0000177D9784177197981775A791021C27791
:10280000DC382278032A1CD2322100F8FC1F042273
:102810004270A1690B7883704B78C3708B78037119
:10282000C978417136218171C27149491C310A78D8
:1028300002724A7842728A788272CA781C21C27205
:10284000FC380C2308444A1C1FFA82F880F8EC304C
:10285000A06841790279CDE90021C3783DA23FA16A
:1028600003A8FEF757FB03A8FDF7BCFC08F1010124
:102870001FFA81F9216B414481F8EC00206B03A918
:102880004844EC30FDF7C2FC03A8FDF7ABFC48441C
:1028900080B23722236B411C184489B280F8EC20A7
:1028A0000822236B481C194480B281F8EC20226B6B
:1028B000411C104489B280F8EC500322236B481C61
:1028C000194480B281F8EC20226B411C104489B27B
:1028D00080F8EC600F22236B481C194480B281F809
:1028E000EC203A22236B411C184489B280F8EC207A
:1028F0003B22236B481C194480B281F8EC201F2234
:10290000236B411C184489B280F8EC202122236BF0
:10291000481C194480B281F8EC20226BFF2110443E
:1029200080F8EC102078032805D2FF22042106A8A5
:10293000FDF746FC01E0E06906904320009006ABFD
:102940003A460320216B00F059F807B0BDE8F08348
:10295000480000205735353030000000252E3473F4
:102960002D2530325825303258253032580000009D
:102970002DE9F047044689469046B8F1000F26D06D
:1029800042F2084000EB44100746FDF78FFF054672
:1029900042F2085000EB44100646FDF787FF00EBBB
:1029A000052085B2280200EB44101030424649460B
:1029B00000F0F8FA05EB080084B2210A3846FDF76A
:1029C0008FFFE1B23046BDE8F047FDF789BF2146F1
:1029D000BDE8F04701A0FEF78DBA000043483A2059
:1029E000256420556E657870656374656431206C6C
:1029F000656E67746820300D0A0000002DE9F04113
:102A00000446069F884616461D462046FFF70AF9EB
:102A1000B04203D22046FFF705F90646297829B9C6
:102A2000687818B9A87808B9E878E0B3DFB340F659
:102A3000084000EB4410FDF753FF40F6085069785A
:102A400000EB4410FDF74CFF40F60860A97800EB5E
:102A50004410FDF745FF40F60870E97800EB44109C
:102A6000FDF73EFF41F20800390A00EB4410FDF784
:102A700037FF41F20810F9B200EB4410FDF730FFC8
:102A8000324641462046FFF773FF4FF4847000EB57
:102A9000441520212846FDF723FF2846FDF706FFB1
:102AA0000028FAD100E004E04FF4027000EB441477
:102AB0000DE0002614E02046FDF7F8FE000706D5DD
:102AC00020461821FDF70CFF0020BDE8F0812046CC
:102AD000FDF7ECFEC006EED520461021FDF700FF05
:102AE0003046F2E704220146900100F05BBA01464D
:102AF0000020FDF7F5BE014606224FF4106000F0FD
:102B000051BA014604224FF4706000F04BBA0146FE
:102B100004224FF4A06000F045BA000038B5494DDA
:102B2000474CE86944F8020C288C6080D5F8030013
:102B30006060D5F80700A060D5F80B00E060D5F81C
:102B40000F002061A41E2878002802D13EA0FEF7C5
:102B5000D1F92878022810D1FFF788FB38481A30BD
:102B6000017829B94178082902D18078DC2808D079
:102B70003DA0FEF7BFF900F049FA287801280CD0F3
:102B800014E047A0FEF7B6F9A41DE0692060206AB2
:102B90006060606AA060A41FEFE7687801283FD0FA
:102BA00044A0FEF7A7F928A0FEF7A4F90120A0761B
:102BB0000020E07622480830FFF7A9FF20480C30BB
:102BC000FFF790FFA01DFFF79CFF1E48C01CFFF7FA
:102BD0002FF81C48C01CC178009183784278017896
:102BE0003CA0FEF787F91748C01DFFF727F81548E6
:102BF000C01DC17800918378427801783DA0FEF72E
:102C000079F910480B30FFF707F80E480B30C17800
:102C100000918378427801783EA0FEF76BF938BDC9
:102C200044A0FEF767F94748016844F8061F416869
:102C300061608168A160C068E060A41FB6E7000021
:102C4000AA0000202400002020CAB9D3C3B6A8D20D
:102C5000E5B5C44950D0C5CFA2C5E4D6C357353574
:102C600030300D0A0000000020454550524F4DCE37
:102C7000B4C5E4D6C32CCAB9D3C3B6A8D2E5B5C48B
:102C80004950D0C5CFA2C5E4D6C357353530302C16
:102C9000B2A2D0B4C8EB454550524F4D0D0A0000CA
:102CA0002049502066726F6D20454550524F4D0DA2
:102CB0000A0000002044484350D7D3B3CCD0F2CE12
:102CC000B4D4CBD0D02CBBF2D5DFB2BBB3C9B9A63C
:102CD0000D0A0000205735353030204950B5D8D680
:102CE000B72020203A2025642E25642E25642E2529
:102CF000640D0A0020573535303020D7D3CDF8D1B8
:102D0000DAC2EB203A2025642E25642E25642E2578
:102D1000640D0A0020573535303020CDF8B9D82061
:102D2000202020203A2025642E25642E25642E257F
:102D3000640D0A002049502066726F6D204448439C
:102D4000500D0A00DC00002010B5084C0648E1696F
:102D50000160218C8180FFF7CEFE0548E1690160AA
:102D6000218C818010BD0000A800002024000020DC
:102D7000D60000202DE9F04105460F46164698463C
:102D800007F00F04012C0AD0022C08D0032C06D027
:102D9000042C04D0052C02D00020BDE8F081284688
:102DA000FEF718FE082047EA080100EB4510FDF782
:102DB00097FD4FF481604FF4A16100EB451001EBEA
:102DC00045143EB1310AFDF78BFDF1B22046FDF707
:102DD00087FD0BE00D4E3188491C89B23180090A0C
:102DE000FDF77EFD31782046FDF77AFD4FF48470C3
:102DF00000EB451401212046FDF772FD2046FDF74A
:102E000055FD0028FAD10120C7E700004600002048
:102E10002DE9F05F804689460025002600241B4FDF
:102E20004FF6FF7A07F1100B41F6087018F80410FE
:102E300000EB4410FDF754FD41F6086019F804104A
:102E400000EB4410FDF74CFD002027F814002BF890
:102E500014004FF48040854205DC18F804100AEA9B
:102E6000812127F81410864205DC19F804000AEACB
:102E700080202BF8140037F8140005443BF81400A8
:102E80000644641C082CCFDBBDE8F09F88000020BE
:102E90000106C0F3072241EA0241C0F3074241EABA
:102EA000022141EA106070470106090C41EA102036
:102EB000704700004FF0E0210A6922F004020A6125
:102EC0000649C008087000EB4002C2EBC0104FF684
:102ED000FF7202EAC0004880704700001000002026
:102EE00010B5FDF7DBFEFDF712FF0121BDE8104034
:102EF0000846FDF78BBD000007484169491C416148
:102F0000B1F57A7F07D3002141618169491C816154
:102F10008178491C8170704724000020064A4FF4D4
:102F20008051002804D0012805D11046FDF7BBBC14
:102F30001046FDF7B6BC7047000402402DE9F04191
:102F400007460D4616460024002E02D10FA0FDF7BD
:102F5000D1FFFFF743F8C7F30740FDF7BFFCC7F306
:102F60000720FDF7BBFC07F0F800FDF7B7FC05E014
:102F70000020FDF7B3FC2855641CA4B2B442F7D37B
:102F8000FFF72FF83046BDE8F0810000556E6578F8
:102F900070656374656432206C656E677468203098
:102FA0000D0A00002DE9F04107460D4616460024A3
:102FB000002E02D10FA0FDF79DFFFFF70FF8C7F31A
:102FC0000740FDF78BFCC7F30720FDF787FC07F0F0
:102FD000F800001DC0B2FDF781FC04E0285DFDF79C
:102FE0007DFC641CA4B2B442F8D3FEF7FAFF30466D
:102FF000BDE8F081556E6578706563746564322054
:103000006C656E67746820300D0A000010B50021F1
:1030100012220448FEF7B5FDBDE810400A20FEF775
:10302000F1BC0000A800002048300008000000208B
:10303000880000003C0F0008D03000088800002005
:10304000680800004C0F00080000000001020304A3
:103050000102030406070809000000000202020240
:10306000020202020202020202020202010000C087
:10307000A80158FFFFFF00C0A80101727272720020
:1030800000000000000000000008DC11111188138E
:103090000000000000000000D6000020E00000203A
:1030A000E4000020E8000020DC0000200000000018
:1030B00000000000000000000000000078563412FC
:1030C000EC000020000000000000000000000000F4
:040000050800018965
:00000001FF
