:020000040800F2
:10000000780C00209D010008CD030008C9030008FA
:10001000CB03000887020008610800080000000008
:100020000000000000000000000000003D06000885
:100030008902000800000000CF030008150700082F
:10004000B7010008B7010008B7010008B7010008B0
:10005000B7010008B7010008B7010008B7010008A0
:10006000B7010008B7010008B7010008B701000890
:10007000B7010008B7010008B7010008B701000880
:10008000B7010008B7010008B7010008B701000870
:10009000B7010008B7010008B7010008B701000860
:1000A000B7010008B7010008B7010008B701000850
:1000B000B7010008B7010008B7010008B701000840
:1000C000B7010008B7010008B7010008B701000830
:1000D000B7010008B7010008B7010008B701000820
:1000E000B7010008B7010008B7010008B701000810
:1000F000B7010008B7010008B7010008B701000800
:10010000B7010008B7010008B7010008B7010008EF
:10011000B7010008B7010008B7010008B7010008DF
:10012000B7010008B7010008B7010008B7010008CF
:10013000B7010008B7010008B7010008B7010008BF
:10014000B7010008B7010008B7010008B7010008AF
:10015000B7010008B7010008B7010008B70100089F
:10016000B7010008B7010008B7010008B70100088F
:10017000B7010008B7010008B7010008B70100087F
:10018000B7010008B7010008DFF80CD000F04AF80A
:1001900000480047A5120008780C00200648804758
:1001A00006480047FEE7FEE7FEE7FEE7FEE7FEE75C
:1001B000FEE7FEE7FEE7FEE71907000889010008F1
:1001C0002DE9F05F0546002092469B46884606468C
:1001D000814640241BE0284641464746224600F01F
:1001E00042F853465A46C01A914110D31146184658
:1001F000224600F029F82D1A67EB01084F462246E7
:100200000120002100F020F817EB00094E41201ECC
:10021000A4F10104DFDC484631462A464346BDE8E6
:10022000F09F0000064C074D06E0E06840F0010337
:1002300094E8070098471034AC42F6D3FFF7A8FFC4
:10024000201E0008401E0008202A04DB203A00FA85
:1002500002F1002070479140C2F1200320FA03F31D
:10026000194390407047202A04DB203A21FA02F01B
:100270000021704721FA02F3D040C2F120029140E0
:10028000084319467047FEE77047000070B586B016
:100290000121084600F09CF80121102000F0A6F88A
:1002A0001E4E07220A21304600F07AF80722092163
:1002B000304600F075F800248DF8164001208DF8C6
:1002C000170002258DF81450410204918DF8155045
:1002D00004A9304600F026F88DF814506802049006
:1002E00004A9304600F01EF84FF4E1300090ADF85C
:1002F0000440ADF80640ADF80840ADF80C400C20C5
:10030000ADF80A00064C6946204600F047FA012184
:10031000204600F02FFA06B070BD00000000024039
:10032000001001402DE9F041002201274FF0030C9D
:1003300007FA02F50B682B40AB422CD1066853003C
:100340000CFA03F4A64306600E79D0F800809E40B4
:1003500046EA080606600E79012E01D0022E12D15F
:100360008668A64386604E79D0F808809E4046EAAB
:10037000080686604668AE43466045688E799640BA
:10038000B6B235434560C568A543C560CC799C408D
:10039000C3681C43C460521C102AC9D3BDE8F08155
:1003A00010B54B07DB0E9A40C90800EB8100016ACB
:1003B0000F249C40A1430162016A1143016210BDF8
:1003C0004183704701837047FEE7FEE7704770473F
:1003D000054A002903D01168014311607047116874
:1003E000814311607047000030380240054A0029FF
:1003F00003D0116801431160704711688143116097
:10040000704700004438024070B5244B196801F071
:100410000C01234C00291ED0661004291DD0082988
:100420001DD00460196801F0F00109091D4A545CEF
:100430000168E14041601C6804F4E054A40A145DC2
:1004400021FA04F484601B6803F460435B0BD25C04
:10045000D140C16070BD0460E4E70660E2E70F4A86
:10046000121F1168C1F38055116801F03F0135B1C9
:10047000B6FBF1F11468C4F38814614305E0B4FBE2
:10048000F1F11468C4F3881461431268C2F30142A5
:10049000521C5200B1FBF2F10160C3E70838024080
:1004A0000024F4000000002010210148FFF78ABF5B
:1004B0000000024010210148FFF782BF0000024007
:1004C000002904D0018841F0400101807047018873
:1004D00021F040010180704710B586B000F030F87F
:1004E0001020ADF810000020ADF804004FF4827128
:1004F000ADF80610ADF808000221ADF80A10012190
:10050000ADF80C104902ADF80E10ADF8120007203E
:10051000ADF81400054C01A9204600F059F801215E
:100520002046FFF7CDFF06B010BD000000300140AF
:10053000012080F310887047002080F310887047F6
:100540007CB501210803FFF751FF01210320FFF7CC
:100550003FFF1D4D052203212846FFF721FF0522FD
:1005600004212846FFF71CFF052211462846FFF705
:1005700017FF0820009002218DF805108DF8041057
:1005800000218DF806108DF8071069462846FFF700
:10059000C9FE1024009469462846FFF7C3FE2021B7
:1005A000009169462846FFF7BDFE009401208DF8B2
:1005B0000400064C69462046FFF7B4FE1021204691
:1005C000FFF700FF7CBD0000000402400000024075
:1005D00030B5028802F441530A884C88CD88224302
:1005E0008C882C4322430C8922434C8922438C89DA
:1005F0002243CC8922431A430280828B22F4006278
:100600008283098A018230BD054801898907FCD5AA
:10061000FF2181810189C907FCD08089C0B2704760
:100620000030014004490A899207FCD58881088975
:10063000C007FCD088897047003001407047000037
:100640000CB50022019200922749086840F48030DE
:1006500008604FF4A043086800F40030009001984F
:10066000401C0190009810B901989842F3D1086895
:10067000800302D50120009000E00092009801283C
:1006800031D119484030026842F080520260174868
:10069000026842F440420260134808300268026077
:1006A000026842F400420260026842F4A052026012
:1006B000021F0F4B13600A6842F080720A600A68DA
:1006C0009201FCD50B4A40F205711160016821F0DE
:1006D00003010160016841F0020101600168C1F39A
:1006E00081010229FAD10CBD00380240007000409F
:1006F00019544007003C02404FF0E021042804D088
:10070000086920F0040008617047086940F004009F
:10071000086170477047000010B51248016841F445
:10072000700101601048016841F0010101600E4A4A
:1007300000210832116002680C4B1A400260031D50
:100740000B4A1A60026822F48022026006480C30CC
:100750000160FFF775FF03494FF0006080390860C2
:1007600010BD000088ED00E000380240FFFFF6FEFB
:1007700010300024002904D0818941F40051818186
:100780007047818921F40051818170470246002021
:1007900012880A4200D00120704700007FB504464D
:1007A0000D46208A20F44051E88808432082A08921
:1007B00041F20C618843A9882A8911436A8902435E
:1007C0001143A181A08A20F44071A8890843A08226
:1007D0006846FFF719FE1E48844202D01D48844235
:1007E00001D1039800E00298A189090408D500EB23
:1007F000C00101EB001029684900B0FBF1F007E0EF
:1008000000EBC00101EB001029688900B0FBF1F09A
:100810006422B0FBF2F109010B096FF018056B437C
:1008200000EB8300A3891D044FF0320307D503EBCF
:10083000C000B0FBF2F000F00700084306E003EB55
:100840000010B0FBF2F000F00F00084320817FBDE4
:100850000010014000140140C1F30801818070477D
:10086000FEE7000070B505460C4CA0688047206983
:100870008047E169C5F307408847E169C5F3072070
:100880008847E169E8B28847A06980470546616901
:100890008847E1688847284670BD00003000002086
:1008A0002DE9F04180460E46174600240F4DA868FA
:1008B000804728698047E969C8F307408847E969A4
:1008C000C8F307208847E96908F0FF00884704E07B
:1008D000A86980473055641CA4B2BC42F8D368694B
:1008E0008047E868BDE8F041004700003000002084
:1008F00070B505460E460D4CA068804720698047BC
:1009000045F00405E269C5F307409047E269C5F385
:1009100007209047E269E8B29047E2693046904785
:1009200060698047E068BDE8704000473000002003
:100930002DE9F04105460F46904600240F4EB16860
:1009400088473169884745F00405F169C5F30740D8
:100950008847F169C5F307208847F169E8B28847FD
:1009600004E0F369385D9847641CA4B24445F8D3A9
:1009700070698047F068BDE8F04100473000002012
:100980000FB4054B10B503A9044A029800F018F8FB
:1009900010BC5DF814FB0000111100086400002079
:1009A00002E008C8121F08C1002AFAD17047704738
:1009B000002001E001C1121F002AFBD17047000096
:1009C0002DE9FF4F8DB00F460546002606E025288D
:1009D0000BD0DDE90F1290476D1C761C287800289B
:1009E000F5D111B03046BDE8F08F0024A246A146F3
:1009F0000122EC4900E0044315F8013F203B02FAD4
:100A000003F00842F7D128782A2810D06FF02F027F
:100A10002878A0F13001092914D80AEB8A0102EBE9
:100A2000410144F0020400EB010A6D1CF0E701CF24
:100A30005FEA000A03D544F40054CAF1000A44F006
:100A400002046D1C28782E2817D115F8010F44F0E8
:100A500004042A280ED06FF02F022878A0F130016C
:100A600009290AD809EB890102EB410100EB0109D0
:100A70006D1CF2E757F8049B6D1C28786C280FD08A
:100A800006DC4C2817D068280DD06A2814D104E061
:100A9000742810D07A280FD10DE044F400140AE035
:100AA00044F4801401E044F440146978814202D196
:100AB00004F580146D1C6D1C2A786E2A1FD00CDC86
:100AC000632A31D004DC002A8BD0582A11D1A3E04C
:100AD000642A68D0692A0CD165E0732A2ED004DC20
:100AE0006F2A73D0702A04D19BE0752A6FD0782AC0
:100AF0006ED01046DDE90F129047761C50E1C4F32A
:100B00000250022806D0032809D0042801CF09D0BA
:100B1000066045E101CFF117C0E9006140E101CF76
:100B200006803DE106703BE117F8040B8DF80000EC
:100B300000208DF80100EB46012003E057F804BBCC
:100B40004FF0FF3061074FF0000102D40DE008F1D3
:100B50000101884649450FDA8045F8DB1BF808108B
:100B60000029F4D108E008F1010188468142FADB4E
:100B70001BF808100029F6D1DDE90F23AAEB0800C5
:100B80008146214600F036F9304400EB080604E0C7
:100B9000DDE90F121BF8010B9047B8F10108F7D2FD
:100BA00021464846F7E00A21C4F302534FF0000BF8
:100BB0000891022B04D001CFC117032B09D00AE002
:100BC000FF1D27F00707F7E8020108E032E01FE009
:100BD00020E000B2C117042B01D140B2C117031E9F
:100BE00071F1000307DA4FF0000CD0EB0C006CEB56
:100BF00001012D2302E0230504D52B238DF8243099
:100C0000012303E0E30701D02023F7E7984658E0EB
:100C10000A2110E010210EE010204FF0000B089088
:100C20000CE010214FF0000B44F004044FF00809D1
:100C3000089103E008214FF0000B0891C4F3025320
:100C4000022B04D001CF0021032B06D006E0FF1DAC
:100C500027F00707F7E8020103E080B2042B00D178
:100C6000C0B24FF0000823072BD5702A07D0DDF85B
:100C700020C08CF0100C5CEA0B0C05D00EE0402379
:100C80008DF82430012308E050EA010306D0302318
:100C90008DF824308DF8252002239846DDF820C0F9
:100CA0008CF0080C5CEA0B0C0BD150EA010301D16B
:100CB000630706D530238DF824304FF00108A9F1E1
:100CC0000109582A04D038A20B9208AA0A920BE014
:100CD0003AA2F9E75B46089AFFF772FA0B9B9B5C16
:100CE0000A9A521E0A92137050EA0102F2D10A982F
:100CF000ADEB000000F1200B600702D524F4803436
:100D000001E04FF00109D94502DDA9EB0B0000E03D
:100D1000002000EB0B0141440890AAEB010AE0031C
:100D200006D4DDE90F232146504600F063F806445F
:100D30004FF0000908E009A911F80900DDE90F12D8
:100D4000904709F10109761CC145F4DBE0030CD59D
:100D5000DDE90F232146504600F04CF8064404E03C
:100D6000DDE90F1230209047761C0899481E089044
:100D70000029F5DC08E00A980A990078491C0A91D4
:100D8000DDE90F129047761CBBF10001ABF1010BBE
:100D9000F1DC21465046DDE90F2300F019F8064446
:100DA0006D1C1BE6092801003031323334353637EB
:100DB00038396162636465660000000030313233A7
:100DC0003435363738394142434445460000000047
:100DD0002DE9F041044600251E461746880404D438
:100DE00005E039462020B0476D1C641EF9D5284621
:100DF000BDE8F0812DE9F041044600251E469046ED
:100E0000C80301D5302700E02027880404D505E079
:100E100041463846B0476D1C641EF9D52846BDE8EA
:100E2000F08100002DE9F0410446082C03D94FF071
:100E3000FF30BDE8F081012707EB8406380200EBA4
:100E4000C60510212846FFF753FD2846FFF70AFD87
:100E50000028FAD14FF4007000EBC6001F21FFF705
:100E600047FD0B49A7408888B8438880094900207E
:100E700021F814000649891D08554FF4407000EB15
:100E8000C6042046FFF7EEFC0028FAD10120D0E787
:100E9000500000206808002010B50C4606281ED21D
:100EA000DFE800F003070B101418204600F07CFE6A
:100EB00013E0204600F0E0FD0FE02078BDE8104090
:100EC00000F09EBE00F004FE207006E0204600F018
:100ED000A9FE02E0204600F0FEFD002010BD4FF00C
:100EE000FF3010BD2DE9FC410C460021009101911D
:100EF0004D1E4FF498564FF4A057102870D2DFE8DB
:100F000000F0080B1A161E2226303B484B4F6A533E
:100F1000586300F09EFE5EE01CB10094009808301B
:100F20000190DDE90001BDE8FC4100F0E8BD20884A
:100F300000F072FD4FE000F082FD20804BE0208841
:100F400000F024FE47E000F089FD208043E0208887
:100F5000010A3046FFF7CCFC21783846FFF7C8FC81
:100F600039E03846FFF77EFC05463046FFF77AFC4D
:100F700005EB002020802EE01A4882782270C2788B
:100F800062700279A2704279E27080792071617199
:100F900021E000F0D6FE1EE0204600F0E7FE1AE059
:100FA000204600F090FE16E02078BDE8FC4100F0FD
:100FB00003BF00F0BAFEC0B241B2491C01D020709C
:100FC00009E02846BDE8FC8100F0A4FEC0B241B2B1
:100FD000491C02D020700020F4E72846F2E7FFE722
:100FE0002846EFE73000002010B504466FF00400FB
:100FF000FFF782FB0649E008087000EB4002C2EBF5
:10100000C0104FF6FF7202EAC000488010BD000019
:101010005E00002070B54FF40775B0FBF5F1CCB25F
:10102000B0FBF5F105FB110604E0284600F00CF8D2
:10103000641EE4B2002CF8D1002E04D03046BDE886
:10104000704000F001B870BD0B49498848434FF02B
:10105000E021486100238B61086940F001000861CC
:101060000869C20701D0C003FAD5086920F0010061
:1010700008618B61704700005E0000202DE9F0419F
:101080000646082E03D94FF0FF30BDE8F081012756
:1010900007EB8604E000FFF7E5FB00F00F000128F6
:1010A00001D0B81FF1E74FF4807000EBC4050821B0
:1010B0002846FFF71DFC2846FFF7D4FB0028FAD18D
:1010C0001248B7408188B94381804088074201D0E7
:1010D0000020DAE74FF4007000EBC4054FF44070D5
:1010E00000EBC4040AE02846FFF7BCFB000705D567
:1010F0003046FFF797FE6FF00C00C6E72046FFF77B
:10110000B1FB0028EFD10120BFE700005000002014
:1011100070B50446064DE1B22846FFF79DFB8021DD
:101120002846FFF733FB0028F9D0204670BD0000A9
:10113000001001402DE9F041002701224FF4185121
:1011400002EB800001EBC0054FF41C5101EBC0061F
:101150002846FFF787FB04463046FFF783FB00EB8A
:10116000042084B24CB12846FFF77CFB074630468A
:10117000FFF778FB00EB072087B2A742E8D138469B
:10118000BDE8F0812DE9F04100270122510302EB77
:10119000800001EBC0054FF4045101EBC006284666
:1011A000FFF760FB04463046FFF75CFB00EB0420D2
:1011B00084B24CB12846FFF755FB07463046FFF78F
:1011C00051FB00EB072087B2A742E8D13846BDE8C3
:1011D000F08100002DE9FC418020009002268DF86E
:1011E000056001258DF8045000248DF807408DF826
:1011F00006400B4F69463846FFF794F88021384681
:10120000FFF7E0F8402100918DF805608DF804406B
:101210008DF8075069463846FFF784F8BDE8FC8131
:101220000004024070B50646082E02D94FF0FF3088
:1012300070BD012000EB8604E000FFF713FB00F017
:101240000F00012802D06FF0040070BD4FF4407011
:1012500000EBC4052846FFF705FB132802D06FF00A
:10126000020070BD4FF4807000EBC40402212046E0
:10127000FFF73EFB2046FFF7F5FA0028FAD103E01E
:101280002046FFF7EFFA30B12846FFF7EBFA1428B3
:10129000F6D1012070BD3046FFF7C4FD6FF00300AA
:1012A00070BD000086B03C4890E80E00C068CDE9F3
:1012B00002230191049000F051F93849384800F0B8
:1012C000CFF93849384800F0DDF93849384800F09E
:1012D000EBF938A0FFF754FBFFF77CFF00F0FAF9B9
:1012E00039A0FFF74DFB01A90120FFF7FBFD401CD2
:1012F00003D13BA0FFF744FBFEE705A90F20FFF752
:10130000F1FD401C02D13DA0FFF73AFB9DF814000F
:101310000028F2D000F086F84FF442754FF40276C0
:101320003220FFF777FE2846FFF79CFA60B31328B8
:1013300007D0172809D01C28F2D10020FFF79EFE05
:10134000EEE70020FFF76EFFEAE734462046FFF79E
:1013500089FAC00703D001212046FFF7C9FA00200F
:10136000FFF7E8FE0446002CDAD022462A49002086
:1013700000F0FEF8284929A0FFF702FB2246264983
:10138000002000F0BDF9CBE7002341F288320121B3
:10139000184600F049FAC3E7101E00083905000896
:1013A00031050008A9040008B50400082506000856
:1013B00009060008B3F5CABCBBAF2044656D6F20B9
:1013C00056312E30200D0A0072657365745F7735D3
:1013D0003530302829206F766572200D0A00000014
:1013E00057495A4348495020496E697469616C698C
:1013F0007A6564206661696C2E0D0A00556E6B6E0D
:101400006F776E20504859204C696E6B2073746161
:101410007574732E0D0A00006800002025730D0AF4
:101420000000000010B586B020490020FFF734FD11
:101430001E490120FFF730FD04A90820FFF752FDE7
:1014400004A91BA0FFF79CFA184C21796079E27877
:10145000CDE900210290A378627821781AA0FFF7E5
:101460008FFA607A0090237AE279A17920A0FFF7C1
:1014700087FA607C0090237CE27BA17B21A0FFF7B0
:101480007FFA607B0090237BE27AA17A22A0FFF7AB
:1014900077FA607D0090237DE27CA17C23A0FFF79A
:1014A0006FFA27A0FFF76CFA06B010BD10000020FD
:1014B0000D0A3D3D3D202573204E455420434F4E9F
:1014C00046203D3D3D0D0A004D41433A2025303236
:1014D000583A253032583A253032583A2530325869
:1014E0003A253032583A253032580D0A00000000B3
:1014F0005349503A2025642E25642E25642E2564F8
:101500000D0A00004741523A2025642E25642E25FD
:10151000642E25640D0A00005355423A2025642E9E
:1015200025642E25642E25640D0A0000444E533A8E
:101530002025642E25642E25642E25640D0A0000C6
:101540003D3D3D3D3D3D3D3D3D3D3D3D3D3D3D3DCB
:101550003D3D3D3D3D3D0D0A0000000010B5FEF74C
:1015600095FEFEF7B9FFBDE81040A820FFF73CBD8F
:101570002DE9F74F07461646082F03D94FF0FF30E5
:10158000BDE8FE8F4FF0010A0AEB8705E800FFF780
:1015900069F900F00F00012802D06FF00400EFE7B6
:1015A0009EB14FF4F05000EBC500FFF75BF94FF62A
:1015B000FF7101EA8020B04200D206464FF440702D
:1015C0006FF0060B00EBC5093DE06FF00D00D7E7AB
:1015D0001C2804D03846FFF725FC5846D0E7CCB984
:1015E0003846FFF7CFFD80464FF4F85000EBC500BA
:1015F000FFF738F9B8EB802F04D13846FFF712FC1B
:101600005846BDE715490AFA07F04988084200D054
:10161000BCB1C4B1B44200D2264632463846019924
:1016200000F08EF94FF4807000EBC5044021204695
:10163000FFF75EF92046FFF715F90028FAD130468A
:101640009EE700209CE73846FFF774FD04464846B5
:10165000FFF708F91728D5D0BAE70000500000209E
:10166000054A002803D011B19060D160704703484B
:1016700090600348D060704730000020371A00089F
:10168000391A0008054A002803D011B110615161D0
:1016900070470348106103485061704730000020D4
:1016A0003D1A00083B1A000810B5074C2288930524
:1016B000FDD518B111B1A061E16110BD0348A06171
:1016C0000348E06110BD0000300000204D1C000800
:1016D000511C000810B5094C80212046FEF770FE11
:1016E0000220FFF797FC80212046FEF76BFEBDE845
:1016F00010404FF4C860FFF78DBC000000040240AA
:101700002DE9F74F81461446B9F1080F03D94FF080
:10171000FF30BDE8FE8F012505EB8906F000FFF7DD
:10172000A1F800F00F00012801D0A81FF1E774B163
:101730004FF4407000EBC6084046FFF793F86FF097
:10174000060B172806D01C2804D05846E1E76FF096
:101750000D00DEE7DFF8CCA005FA09F5BAF80400C1
:10176000054213D04FF4007000EBC6073846FFF770
:1017700079F800F01F00C10616D538461021FFF792
:10178000B7F8BAF80400A843AAF804004FF4F850D8
:1017900000EBC600FFF766F84FF6FF7101EA802004
:1017A000844235D9044633E0000705D54846FFF7A3
:1017B00039FB6FF00C00ACE70020AAE71C2804D02E
:1017C0004846FFF72FFB5846A3E7BAF80200054248
:1017D00003D0BC4201D900209BE7BC4218D8224666
:1017E0004846019900F0E0F84FF4807000EBC6061F
:1017F00020213046FFF77CF83046FFF733F8002809
:10180000FAD1BAF804000543AAF80450204680E74C
:101810004846FFF7B7FC07464046FFF723F817286E
:10182000D3D0CBE7500000202DE9F04705460E4607
:1018300017461C46082D03D94FF0FF30BDE8F0874E
:10184000012E06D0022E04D0042E02D06FF0040028
:10185000F4E714F0060F6FF00500EFD184B1012E0C
:1018600002D0022E0CD103E014F0210FE6D007E0E5
:10187000A10601D52106E1D5E10601D52106DDD578
:101880002846FFF7CFFA04F0F00131434FF0010989
:1018900009EB8506F000FFF72BF8DFF89C806FB9A5
:1018A000B8F80070781C80B2A8F80000A0F57F415D
:1018B000F03903D14FF44040A8F800004FF48060A5
:1018C000390A00EBC600FFF713F84FF4A060F9B235
:1018D00000EBC600FFF70CF84FF4807000EBC60772
:1018E00001213846FFF704F83846FEF7BBFF002811
:1018F000FAD104F00100B8F80210A8400843A8F893
:101900000200B8F8040009FA05F920EA0900A8F86D
:1019100004000A49002021F815000749891D48558F
:101920004FF4407000EBC6042046FEF79BFF0028F2
:10193000FAD068B282E7000050000020680800205A
:101940002DE9F047064688461746002F2AD0012089
:1019500000EB86044FF4245000EBC4000546FEF76C
:1019600081FF82464FF4205000EBC4008146FEF711
:1019700079FF0AEB002084B22002032101EB8601EB
:1019800000EBC1003A464146FEF78AFFE01984B2F7
:10199000210A4846FEF7ACFFE1B22846BDE8F04711
:1019A000FEF7A6BFBDE8F0872DE9F047064688465A
:1019B0001746002F2AD0012000EB86044FF4145064
:1019C00000EBC4000546FEF74DFF82464FF4105071
:1019D00000EBC4008146FEF745FF0AEB002084B20D
:1019E0002002022101EB860100EBC1003A4641468C
:1019F000FEF79EFFE01984B2210A4846FEF778FF01
:101A0000E1B22846BDE8F047FEF772BFBDE8F087B7
:101A1000007870470170704710B5040A00F0F001BB
:101A20004FF4A850FEF764FF2146BDE810404FF484
:101A3000B850FEF75DBF704770477047704710B5EC
:101A40004FF4A850FEF70EFF00F0F0044FF4B8502A
:101A5000FEF708FF04EB002080B210BD10B54FF474
:101A6000B050FEF7FFFE04464FF4C050FEF7FAFEFA
:101A700004EB002080B210BD10B5044606222146BA
:101A80004FF41060FEF70CFF042204F10E019001E8
:101A9000FEF706FF042204F10A014FF4A060FEF7EE
:101AA000FFFE0422A11D4FF47060FEF7F9FE074807
:101AB0000178A1744178E17481782175C0786075EE
:101AC0000248401E0078A07510BD000029000020CB
:101AD0000020FEF7C7BE70B504464FF4D850FEF79D
:101AE000C1FE20704FF4D050FEF7BCFE05464FF407
:101AF000C850FEF7B7FE05EB0020608070BD2DE9F1
:101B0000F04780460D46002400F0A3F8671E01262A
:101B1000B8F1000F1CD0002218F80200204444B293
:101B2000521C52B2082AF7DB102C02DD3846BDE801
:101B3000F08700244FF4F85906EB840018F80410DD
:101B400009EBC000FEF7D4FE641C64B2082CF3DB82
:101B5000D5B100230022A85C184443B2521C52B2F3
:101B6000082AF8DB102B01DD3846E0E700244FF4AB
:101B7000F05706EB8400295D07EBC000FEF7B8FEC6
:101B8000641C64B2082CF4DB0020D0E710B5C1B2AD
:101B9000040A4FF4B050FEF7ABFE2146BDE81040FA
:101BA0004FF4C050FEF7A4BE10B5044606222146ED
:101BB0004FF41060FEF7BCFE042204F10E01900108
:101BC000FEF7B6FE042204F10A014FF4A060FEF70E
:101BD000AFFE0422A11D4FF47060FEF7A9FE074876
:101BE000A17C0170E17C4170217D8170617DC170BB
:101BF0000249A07D491E087010BD00002900002088
:101C000010B5044634F03A0002D04FF0FF3010BD5A
:101C10000020FEF727FE204301460020FEF768FE65
:101C2000002010BD10B504464FF4D8502178FEF7BF
:101C30005FFE6088010A4FF4C850FEF759FEA17894
:101C4000BDE810404FF4D050FEF752BE0020704760
:101C50007047F0B585B04FF41064062269462046FF
:101C6000FEF71EFE0422950104A92846FEF718FE81
:101C70004FF4A066042203A93046FEF711FE4FF48C
:101C80007067042202A93846FEF70AFE8021002070
:101C9000FEF72EFE0020FEF7E5FD062269462046EF
:101CA000FEF746FE042204A92846FEF741FE042260
:101CB00003A93046FEF73CFE042202A93846FEF78F
:101CC00037FE05B0F0BD10B504464FF43850FEF7AE
:101CD000C9FDC0F38011217000F0380001210022FD
:101CE000202811D038280FD0627010280ED0182864
:101CF0000CD020280AD0A270082809D0182807D0B4
:101D0000202805D0E27010BD6170EEE7A170F3E706
:101D1000E17010BD10B54FF43850FEF7A3FDC007B9
:101D200001D0012010BD002010BD10B500244FF4DB
:101D30003850FEF797FD10F0300F00D001242046F8
:101D400010BD10B54FF438542046FEF78BFD20F03F
:101D500080012046FEF7CCFD2046FEF783FD40F0D3
:101D600080012046BDE81040FEF7C2BD10B500213D
:101D70000278012A00D140214278012A06D0C27897
:101D8000012A06D0807801280CD00DE041F03801FE
:101D90000AE08078012802D041F0080104E041F017
:101DA000180101E041F010014FF43850FEF7A0FD9A
:101DB000BDE81040FFF7C5BF70B504464FF4385575
:101DC0002846FEF74FFD41064FF0FF3601D430465E
:101DD00070BD20F03800012C10D040F038012846AA
:101DE000FEF786FDFFF7ADFF2846FEF73BFD012C11
:101DF00007D010F0380F09D0002070BD40F030013E
:101E0000EDE710F0300F01D0002070BD304670BDFE
:101E100002020202020202020202020202020202A2
:101E2000401E00080000002068000000A009000813
:101E3000A81E000868000020100C0000B00900086F
:101E40000000000001020304010203040607080960
:101E50000008DC111111C0A867CAFFFFFF00C0A86D
:101E600067010808080801000000000000000000E9
:101E70000102573535303000371A0008391A00088A
:101E80003D1A00083B1A0008111A0008151A00082C
:101E900000C0000000000000000000000000000082
:081EA00000000000000000003A
:040000050800018965
:00000001FF
