:020000040800F2
:10000000C02C0020190E0008050300080703000893
:100010000B0300080F030008130300080000000092
:1000200000000000000000000000000017030008AE
:100030001903000800000000AD4F0008B90B0008CC
:10004000330E0008330E0008330E0008330E00088C
:10005000330E0008330E0008330E0008330E00087C
:10006000330E0008330E0008330E0008330E00086C
:10007000330E0008330E0008330E0008330E00085C
:10008000330E0008330E0008330E0008330E00084C
:10009000330E0008330E0008330E0008330E00083C
:1000A000330E0008330E0008330E0008330E00082C
:1000B000330E0008AB510008330E0008330E000861
:1000C000330E0008330E0008330E0008330E00080C
:1000D000330E0008850D0008330E0008330E0008AB
:1000E000330E0008330E0008330E0008330E0008EC
:1000F000330E0008330E0008330E0008330E0008DC
:10010000330E0008330E0008330E0008330E0008CB
:10011000330E0008330E0008330E0008330E0008BB
:10012000330E0008330E0008330E0008330E0008AB
:10013000330E0008330E0008330E0008330E00089B
:10014000330E0008330E0008330E0008330E00088B
:10015000330E0008330E0008330E0008330E00087B
:10016000330E0008330E0008330E0008330E00086B
:10017000330E0008330E0008330E0008330E00085B
:10018000330E0008330E000800F002F800F06AF8A1
:100190000AA090E8000C82448344AAF10107DA45E2
:1001A00001D100F05FF8AFF2090EBAE80F0013F0CA
:1001B000010F18BFFB1A43F00103184780A7000086
:1001C000A0A700000A444FF0000C10F8013B13F008
:1001D000070408BF10F8014B1D1108BF10F8015BA0
:1001E000641E05D010F8016B641E01F8016BF9D193
:1001F00013F0080F1EBF10F8014BAD1C0C1B09D1EA
:100200006D1E58BF01F801CBFAD505E014F8016B5B
:1002100001F8016B6D1EF9D59142D6D370470000ED
:100220000023002400250026103A28BF78C1FBD8FF
:10023000520728BF30C148BF0B607047642909F0DE
:100240005187752909F04E87782909F08787732926
:100250000AF06A81002070471FB50AF040FA1FBDFE
:1002600010B510BD0AF002FA1146FFF7F5FF00F0D5
:1002700023F80AF020FA03B4FFF7F2FF03BC00F002
:1002800021FD000070B50446002500BF04F066FEA5
:1002900005460723164A0021164804F05DF9062397
:1002A000154A0021154804F057F90A2004F0D4FB40
:1002B000284604F057FE70BD10B5A82000F088FC59
:1002C00000F0FEFA04F0AEFE04F0B2FE04F0B7FE59
:1002D00004F0D9FE02F08DFE0A23094A0021AFF294
:1002E0005B0004F039F902F0A9FF002010BD000006
:1002F000140400202D05000814050020B70600088E
:1003000014030020704700BFFEE700BFFEE700BFF8
:10031000FEE700BFFEE77047704700000CB5002005
:10032000019000907648006840F48030744908607D
:1003300000BF7348006800F4003000900198401C32
:100340000190009818B90198B0F5A04FF1D16C4810
:10035000006800F4003010B10120009001E000209E
:1003600000900098012846D165484030006840F070
:1003700080506349403108606248006840F4404062
:10038000604908605E48083000685D4908310860CF
:100390000846006840F4004008600846006840F4E1
:1003A000A05008605848091F0860081F006840F006
:1003B0008070091F086000BF5148006800F000709D
:1003C0000028F9D040F20570504908604C480830C8
:1003D000006820F003004A490831086008460068B8
:1003E00040F00200086000BF45480830006800F097
:1003F0000C000828F8D10CBD10B54548006840F441
:100400007000434908603E48006840F001003C49E4
:10041000086000203A4908310860394800683D49C1
:100420000840374908603C48091D0860081F0068FB
:1004300020F48020091F0860002031490C31086039
:10044000FFF76CFF4FF0006031498039086010BD44
:1004500070B500200022022300240221284D083517
:100460002D6805F00C0020B1042806D0082834D1EE
:1004700007E02A4D2A4E356033E02A4D284E35607C
:100480002FE01F4D2D1D2D68C5F380541C4D2D1DD3
:100490002D6805F03F0154B1224DB5FBF1F5184E22
:1004A000361D3668C6F3881605FB06F209E01B4DBB
:1004B000B5FBF1F5124E361D3668C6F3881605FBFE
:1004C00006F20F4D2D1D2D68C5F301456D1C6B0007
:1004D000B2FBF3F5124E356003E0104D104E35605F
:1004E00000BF00BF064D08352D68C5F303150E4E3D
:1004F000705D0B4D2D68C540094E356070BD000024
:10050000003802400070004008544007003C0240A0
:1005100088ED00E0FFFFF6FE103000240024F40018
:100520000000002000127A00040000206AA009F0F8
:100530007DFD04F00FFE0A2000F09AFB04F0B0FEEF
:100540000A2000F095FB6C496C4804F05BFF0A2020
:1005500000F08EFB102000F005FB4FF4FB7008F05C
:10056000D9FA0A2008F0E0FA4FF4FB7164A009F010
:100570005DFD4FF4FB7008F03DFE40B168A009F04E
:1005800055FD03E04FF47A7000F072FBFAE708F0D3
:10059000B1FE40B169A009F049FD03E04FF47A7063
:1005A00000F066FBFAE74FF4FB716BA009F03EFD2B
:1005B00000BF71480068401C6F49086009F07DFC6D
:1005C00008F0BDFE074604F0C0FB04466B48006817
:1005D000201AB0F57A7F6AD96848046068A009F0EB
:1005E00025FD3A46644801686EA009F01FFD08F039
:1005F000AFFA814608F0A8FA824608F09FFA08B1DF
:1006000074A000E074A006464B465246314673A0E3
:1006100009F00CFD7EA009F009FD4FF4427006F0D0
:10062000B9FB142811D003DC38B1132819D108E024
:1006300017280ED01C2814D10FE07BA009F0F6FC7F
:1006400019E07BA009F0F2FC15E07BA009F0EEFCBC
:1006500011E07BA009F0EAFC0DE07CA009F0E6FCCB
:1006600009E04FF4427006F095FB064631467AA049
:1006700009F0DCFC00BF00BF7AA009F0D7FC002025
:1006800006F0B4FC804642F6081006F083FB0646EE
:1006900042F6080006F07EFB06EB002085B22A46F3
:1006A000414671A009F0C2FC79A009F0BFFC01200D
:1006B00000F0DEFA7DE70EE000207F49086040F29E
:1006C000DC5000F0D5FA01207C49C1F8A80240F2C4
:1006D000DC5000F0CDFAEFE75735353030204D6F64
:1006E000646275732F54435020536572766572208F
:1006F00073746172740D0A00140000201805002044
:100700005B5443505D204C697374656E696E67205D
:100710006F6E20706F72742025750D0A0000000046
:100720005B4D425D20654D42544350496E697420D3
:100730006661696C6564210D0A0000005B4D425DD5
:1007400020654D42456E61626C65206661696C652D
:1007500064210D0A000000005B4D425D204D6F6476
:1007600062757320736C61766520726561647920AF
:100770006F6E2025750D0A00340000203000002027
:100780005B44454255475D203D3D3D204D6F6462D1
:1007900075732054435020537461747573203D3D2C
:1007A0003D0D0A005B44454255475D20506F6C6C1F
:1007B00020636F756E743A20256C752C20654D4250
:1007C000506F6C6C20726573756C743A2025640DE3
:1007D0000A000000596573004E6F00005B444542FB
:1007E00055475D2054435020436F6E6E65637465BA
:1007F000643A2025732C2052582042756666657233
:100800003A2025752F25752062797465730D0A00CD
:100810005B44454255475D20536F636B657420739D
:10082000746174653A200000434C4F534544000006
:10083000494E4954000000004C495354454E0000B5
:1008400045535441424C495348454400434C4F534F
:10085000455F574149540000554E4B4E4F574E2867
:10086000257529000D0A00005B44454255475D206F
:10087000544350204857204275666665723A2052AC
:1008800053523D25752C2052443D25750D0A00001C
:100890005B44454255475D203D3D3D3D3D3D3D3D31
:1008A0003D3D3D3D3D3D3D3D3D3D3D3D3D3D3D3D78
:1008B0003D3D3D3D0D0A0000A8824242008042427B
:1008C0001CB50121202000F05BFE4FF4C0600090B9
:1008D00001208DF8040000208DF8060003208DF81B
:1008E000050001208DF807006946044800F0AAFBC6
:1008F0004FF4C061014800F021FC1CBD001402400F
:100900007FB505460C460121022000F082FE0295CB
:10091000ADF804400020ADF80600ADF80C0001A9C8
:100920000D4801F098FC012211460B4802F034F901
:100930000121094801F018FD1D208DF8000001205B
:100940008DF8010003208DF8020001208DF80300CE
:10095000684600F086FA7FBD0004004010B50446EA
:1009600000BF02218A4801F099FB0028F9D02146F6
:10097000874801F04AFB00BF0121854801F08EFB4A
:100980000028F9D0824801F03DFBC0B210BD00B58F
:1009900087B00121022000F0F3FD0121080300F0DF
:1009A00049FE3820059002208DF8180000208DF8AF
:1009B0001A0003208DF8190001208DF81B0005A9ED
:1009C000744800F03FFB05220321724800F0C5FB8C
:1009D000052204216F4800F0C0FB052211466D4836
:1009E00000F0BBFB0121080300F079FE00214FF469
:1009F000805000F074FE0020ADF800004FF48270CB
:100A0000ADF802000020ADF804000220ADF80600A9
:100A10000120ADF808004002ADF80A003820ADF81A
:100A20000C000020ADF80E000720ADF8100069465C
:100A3000574801F06FF90121554801F065FAFF2090
:100A4000FFF78CFF07B000BD10B504465048008882
:100A50004FF6C77108404E49088008460088204379
:100A6000088001214A4801F04FFA10BD10B5044634
:100A700000BF0221484801F011FB0028F9D02146AF
:100A8000454801F0C2FA00BF0121434801F006FBCE
:100A90000028F9D0404801F0B5FAC0B210BD00B549
:100AA00087B00121022000F06BFD0121880300F0D6
:100AB000B0FD4FF46040059002208DF81800002032
:100AC0008DF81A0003208DF8190001208DF81B0005
:100AD00005A9304800F0B6FA05220D212D4800F096
:100AE0003CFB05220E212B4800F037FB05220F218D
:100AF000284800F032FB0121880300F0DFFD0021CF
:100B00004FF4804000F0DAFD234801F0B7F80020F0
:100B1000ADF800004FF48270ADF802000020ADF88F
:100B20000400ADF80600ADF808004FF40070ADF811
:100B30000A003820ADF80C000020ADF80E000720A8
:100B4000ADF810006946144801F0E4F8012112489C
:100B500001F0DAF9104801F055FAFF20FFF786FF9F
:100B600007B000BD10B5044600210B4801F0CCF9D8
:100B70000948008820F038000749088008460088A6
:100B8000204308800121044801F0BEF910BD000097
:100B900000300140000402400038004010B502F06F
:100BA00091FA10BD10B502F0D2FA10BD10B504468E
:100BB000204604F019F810BD10B53E480078012811
:100BC00005D102F02CFA02F070FB02F043FA10BDDE
:100BD00070B504466FF0040000F090F9E11704EBE3
:100BE0005171C1F3C701344A1170E11704EB51711F
:100BF000CD1041F2883045430520304908804FF040
:100C0000E020006940F002004FF0E0210861084652
:100C10004561006940F00100086170BD2DE9F047B1
:100C2000074600264FF0E020D0F8149022480078C4
:100C300007FB00F8FFF7B2FF4FF0E020856911E0F5
:100C40004FF0E0208469AC420CD0AC4202D2281BA9
:100C5000064403E0A9EB0400284406442546464523
:100C600000D300E0ECE700BFFFF79CFFBDE8F08792
:100C700070B504460F480078A0B11148007888B9D3
:100C80000E480088844206DB0C48008894FBF0F58F
:100C90002846FFF78BFF0948008894FBF0F100FB22
:100CA000114084B24FF47A7104FB01F0FFF7B6FFF4
:100CB00070BD00007E0000203C0000203E000020AF
:100CC00071000020014600BF704700BF4E4A1288E5
:100CD00002F04002002AF9D0C2B24B4B9A80704712
:100CE00010B588B004460121084600F049FC0121F6
:100CF000102000F09FFC07220921444800F02DFA43
:100D000007220A21414800F028FA4FF4C0600690FB
:100D100002208DF81C008DF81D0000208DF81E00AB
:100D200001208DF81F0006A9384800F08BF90294C5
:100D30000020ADF80C00ADF80E00ADF81000ADF8D5
:100D400014000C20ADF8120002A92F4800F0D3FDCA
:100D500001212D4800F057FE012240F225512A487A
:100D600000F007FF25208DF8040003208DF8050012
:100D70008DF8060001208DF8070001A800F071F839
:100D800008B010BD10B502F04AF940F225511E48D6
:100D900000F02AFF10B31C4800F064FEC4B21C48E7
:100DA000008800F40040C8B91948008800F4804069
:100DB00060B10A2C03D000201549088020E01448B7
:100DC000008840F400401249088019E00D2C06D13B
:100DD0000F48008840F480400D49088010E00C481E
:100DE0000088C0F30D000B490C5409480088401CD2
:100DF0000749088008460088C72801DD00200880D0
:100E000002F028F910BD000000100140000002406F
:100E1000440000201C0E0020094880470948004774
:100E2000FEE7FEE7FEE7FEE7FEE7FEE7FEE7FEE79A
:100E3000FEE7FEE704480549054A064B70470000F7
:100E4000F903000889010008C0260020C02C0020FA
:100E5000C0280020C028002032490143324A1160D6
:100E6000704770B5002100230F22C4781CB32E4CAC
:100E7000246804F4E064C4F5E064C4F30721C1F11C
:100E80000404E3B20A4144789C40E1B284781440FF
:100E900021430C07210E254C05786155047804F098
:100EA0001F050124AC4005786D11AD0005F1E0256A
:100EB000C5F8004109E0047804F01F050124AC40A6
:100EC0001B4D0678761145F8264070BD194A0A4038
:100ED0000243154B1B1F1A60704739B1124A121D8D
:100EE00012680243104B1B1D1A6006E00E4A121DC9
:100EF000126882430C4B1B1D1A607047042808D1EE
:100F00004FF0E021096941F004014FF0E022116146
:100F100007E04FF0E021096921F004014FF0E022E1
:100F2000116170470000FA050CED00E000E400E0FC
:100F300080E100E080FFFF1F10B50446984884421E
:100F400008D10121084600F086FB0021012000F0B5
:100F500082FB76E09348844208D10121022000F010
:100F60007AFB0021022000F076FB6AE08E48844282
:100F700008D10121042000F06EFB0021042000F0C4
:100F80006AFB5EE08948844208D10121082000F014
:100F900062FB0021082000F05EFB52E0844884429E
:100FA00008D10121102000F056FB0021102000F094
:100FB00052FB46E07F48844208D10121202000F006
:100FC0004AFB0021202000F046FB3AE07A488442A8
:100FD00008D10121402000F03EFB0021402000F01C
:100FE0003AFB2EE07548844208D10121802000F0B0
:100FF00032FB0021802000F02EFB22E0704884426A
:1010000008D10121801500F026FB0021A01500F079
:1010100022FB16E06B48844208D10121401500F004
:101020001AFB0021601500F016FB0AE066488442B6
:1010300007D10121001500F00EFB0021201500F062
:101040000AFB10BDF0B50A4600210023002400BFB2
:101050003DE0012505FA01F3156805EA03049C4209
:1010600034D105684F000326BE40B54305601579AD
:101070004E00B5400668354305601579012D02D054
:101080001579022D16D185684F000326BE40B54361
:10109000856055794E00B540866835438560456862
:1010A00001268E40B5434560456896798E40B6B2BC
:1010B00035434560C5684F000326BE40B543C56053
:1010C000D5794E00B540C6683543C560491C102926
:1010D000BFD3F0BD4FF6FF71016000210171417176
:1010E0008171C171704708B54FF480320092009A47
:1010F0000A430092009AC261C161009AC261C2694A
:101100000092C269009208BD0246002013690B409C
:101110000BB1012000E0002070470146086980B251
:1011200070470246002053690B400BB1012000E0DC
:10113000002070470146486980B2704701837047BC
:10114000418370470AB1018300E0418370474161E8
:10115000704742694A4042617047F0B5002300245D
:101160004D07ED0E02FA05F3CE1000F1200555F8FB
:1011700026504E07F70E0F26BE40B543CF1000F1A4
:10118000200646F82750CE1000F1200555F82650CD
:1011900045EA0304CE1000F1200545F82640F0BDD5
:1011A000000002400004024000080240000C02401F
:1011B000001002400014024000180240001C0240CF
:1011C000002002400024024000280240F948006844
:1011D00040F00100F74908600020F6490831086036
:1011E000F4480068F4490840F2490860F348091DD2
:1011F0000860F348EF4984310860F0481038091D51
:101200000860EC48006820F48020EA49086000206B
:10121000E8490C310860E7498C31086070470021CB
:10122000E44A921C117011460870704710B50146CF
:101230000022002300204A11012A02D1DD4C23683C
:1012400008E0022A03D1DB4C7034236802E0D94C59
:101250007434236801F01F02012494401C400CB137
:10126000012000E0002010BD38B5002000900024CF
:10127000002500BF3120FFF7D9FF05460098401C2C
:1012800000900098B0F5A04F01D0002DF2D0312091
:10129000FFF7CCFF08B1012400E00024204638BD50
:1012A00001460020C34A106820F0F80040EAC1005F
:1012B00010607047C349086070470021BD4A703212
:1012C00011701170012802D004280AD104E0012114
:1012D000B84A7032117005E00521B64A70321170BB
:1012E00000E000BF00BF7047B7490860704770B5A5
:1012F000049C41EA82150126C6EB530645EA0645E1
:10130000054345EA0465AB4E361D356070BDAD49F9
:1013100008667047820142EA0172A64B84331A6064
:101320007047A8498866704710B5830143EA016396
:1013300043EA02739F4C8834236010BDA1490867BB
:101340007047A049C864704702460020994B083393
:10135000186820F0EC6042EA01031843954B08330B
:101360001860704702460020924B0833186820F03E
:10137000784042EA010318438E4B083318607047E7
:10138000014600208B4A0832106820F00300084311
:101390001060704787480830006800F00C00704704
:1013A00001460020834A0832106820F0F00008430C
:1013B00010607047014600207E4A0832106820F411
:1013C000E05008431060704701460020794A083217
:1013D000106820F4604040EAC10010607047F0B52A
:1013E000002100220024022500260223714F083725
:1013F0003F6807F00C0121B1042905D0082937D135
:1014000005E0724F076036E0714F076033E0694FC7
:101410003F1D3F68C7F38056664F3F1D3F6807F08A
:101420003F036EB16A4FB7FBF3F7DFF888C10CF1E9
:10143000040CDCF800C0CCF3881C07FB0CF40CE0B7
:10144000624FB7FBF3F7DFF86CC10CF1040CDCF86A
:1014500000C0CCF3881C07FB0CF4564F3F1D3F68BF
:10146000C7F301477F1C7D00B4FBF5F7076002E07E
:10147000564F076000BF00BF4E4F08373F6807F068
:10148000F0010909534F7A5C0768D7404760494F1C
:1014900008373F6807F4E051890A4E4F7A5C476885
:1014A000D7408760434F08373F6807F46041490BD6
:1014B000484F7A5C4768D740C760F0BD002100F410
:1014C0004072B2F5407F0AD13A4A0832116821F4DD
:1014D000F811414A02401143364A08321160354A38
:1014E00070321268C0F30B031A43324B70331A6028
:1014F00070473549443908607047334940390860BE
:10150000704736490860704701460020294A8C32EE
:10151000106820F01F004A1E1043264A8C321060CB
:10152000704701460020234A8C32106820F4F8509E
:101530004A1E40EA02201F4A8C3210607047014662
:1015400000201C4A8C32106820F4401008431060C0
:10155000704701460020174A8C32106820F4400082
:1015600008431060704701460020124A8C32106810
:1015700020F44030084310607047194908607047F4
:1015800039B10C4A3032126802430A4B30331A60C8
:1015900006E0084A303212688243064B30331A6044
:1015A0007047F9B1034A343212680243014B3433B5
:1015B0001A601CE000380240FFFFF6EA10300024F9
:1015C0000030002000004742800E47420024F40013
:1015D00000127A0046000020FFFCFF0F5C0147422A
:1015E000E01147428F4A126882438E4B1A6070475F
:1015F00039B18C4A121D126802438A4B1B1D1A60B6
:1016000006E0884A121D12688243864B1B1D1A6031
:10161000704739B1834A0C3212680243814B0C3354
:101620001A6006E07F4A0C32126882437D4B0C330D
:101630001A60704739B17B4A103212680243794B05
:1016400010331A6006E0774A103212688243754BF5
:1016500010331A60704739B1724A243A1268024353
:10166000704B243B1A6006E06E4A243A12688243AB
:101670006C4B243B1A60704739B16A4A203A1268B1
:101680000243684B203B1A6006E0664A203A126823
:101690008243644B203B1A60704739B1614A1C3A5F
:1016A000126802435F4B1C3B1A6006E05D4A1C3A1D
:1016B000126882435B4B1C3B1A60704739B1594A30
:1016C000143A12680243574B143B1A6006E0554A1D
:1016D000143A12688243534B143B1A60704739B175
:1016E000504A103A126802434E4B103B1A6006E013
:1016F0004C4A103A126882434A4B103B1A607047BA
:1017000039B1484A1C3212680243464B1C331A60F6
:1017100006E0444A1C3212688243424B1C331A6072
:10172000704739B13F4A2032126802433D4B2033A3
:101730001A6006E03B4A203212688243394B20335C
:101740001A60704739B1374A243212680243354B68
:1017500024331A6006E0334A243212688243314B44
:1017600024331A60704739B12E4A2C321268024372
:101770002C4B2C331A6006E02A4A2C321268824322
:10178000284B2C331A60704739B1264A3032126820
:101790000243244B30331A6006E0224A303212688A
:1017A0008243204B30331A607047012808D11D490D
:1017B0003C31096841F008011A4A3C32116007E0E7
:1017C00018493C31096821F00801164A3C32116081
:1017D000704739B1134A273A12780243114B273B1D
:1017E0001A7006E00F4A273A127882430D4B273BC6
:1017F0001A7070470B484030006840F0807009490B
:1018000040310860704701460020064A283A1268B5
:101810000A400AB1012000E0002070470149263942
:10182000087070473438024010B50446FA488442C4
:1018300008D101211020FFF752FF00211020FFF7EF
:101840004EFF57E0F548844209D101214804FFF7D3
:1018500035FF00214FF40030FFF730FF4AE0F04839
:10186000844209D101218804FFF728FF00214FF4A9
:101870008020FFF723FF3DE0EA48844209D101219F
:10188000C804FFF71BFF00214FF40020FFF716FFED
:1018900030E0E548844209D101210805FFF70EFF39
:1018A00000214FF48010FFF709FF23E0DF48844256
:1018B00008D101212020FFF712FF00212020FFF78F
:1018C0000EFF17E0DA48844209D101218807FFF7AB
:1018D000F5FE00214FF08040FFF7F0FE0AE0D5480A
:1018E000844207D101214005FFF7E8FE0021600591
:1018F000FFF7E4FE10BD2DE9FF4705460E46002424
:10190000A14600BFA046B08900B100BF2C8A24F4D4
:101910004054F08804432C82AC8941F20C6084432B
:10192000B08831890843718908430443AC81AC8A8B
:1019300024F44074B0890443AC826846FFF74FFD3D
:10194000B548854202D0B948854202D1DDF80C90F5
:1019500001E0DDF80890A88900F4004040B109EBEF
:10196000C90000EB091031684900B0FBF1F707E04E
:1019700009EBC90000EB091031688900B0FBF1F7F1
:101980006420B7FBF0F004012009642101FB10780A
:10199000A88900F4004040B1322000EBC800B0FB41
:1019A000F1F000F00700044308E0322000EB0810DB
:1019B0006421B0FBF1F000F00F0004432C81BDE87E
:1019C000FF874FF41651016000218180C1800181A1
:1019D0000C21418100218181704710B50246002011
:1019E000108A20F470600B884C8823438C88234332
:1019F000CC8823431843108210BD00210180418010
:101A00008180C180704721B1828942F40052828175
:101A100004E082894DF6FF731A4082817047028B81
:101A200002F47F420283028B0A430283704721B192
:101A3000828942F40042828103E08289C2F30E026D
:101A40008281704721B1828A42F40062828204E07E
:101A5000828A4FF2FF731A4082827047C1F30802F4
:101A60008280704701468888C0F308007047028A68
:101A70004FF6F0731A400282028A0A4302827047CC
:101A800021B1828942F00202828104E082894FF60C
:101A9000FD731A408281704782894FF2FF731A40AA
:101AA000828182890A4382817047028A4FF6DF73FE
:101AB0001A400282028A0A430282704721B1028AD6
:101AC00042F48042028204E0028A4BF6FF731A401D
:101AD00002827047818941F001018181704721B103
:101AE000828A42F00802828204E0828A4FF6F7730B
:101AF0001A4082827047028BD2B20283028B42EA82
:101B000001220283704721B1828A42F02002828240
:101B100004E0828A4FF6DF731A408282704721B157
:101B2000828A42F01002828204E0828A4FF6EF73CA
:101B30001A4082827047828A4FF6FB731A40828273
:101B4000828A0A438282704721B1828A42F002026D
:101B5000828204E0828A4FF6FD731A4082827047C7
:101B60001AB1838A0B43838202E0838A8B43838288
:101B70007047F0B50346002400260025002040F6FB
:101B80006A17B94200D100BF1846C1F3421401F0F0
:101B90001F06012707FA06F5012C01D10C3004E0DD
:101BA000022C01D1103000E014301AB107682F4325
:101BB000076002E00768AF430760F0BD02460020FF
:101BC000B1F5007F00D100BF13880B400BB101209D
:101BD00000E00020704701F40072B2F5007F00D1F0
:101BE00000BFCA430280704770B50246002400233C
:101BF0000025002040F66A16B14200D100BFC1F3B3
:101C0000421501F01F03012606FA03F3012D13D13B
:101C10009689334017E00000001001400044004066
:101C200000480040004C00400050004000140140BB
:101C300000780040007C0040022D02D1168A33401B
:101C400001E0968A33400C12012606FA04F4168845
:101C5000344013B10CB1012000E0002070BD10B57C
:101C60000022002340F66A14A14200D100BF0A12EC
:101C700001249440A3B2DC43048010BD10B5044697
:101C8000FB48844208D101218014FFF728FD002180
:101C9000A014FFF724FD3CE0F648844208D101215E
:101CA0000014FFF70BFD00212014FFF707FD30E0C3
:101CB000F148844208D10121C013FFF7FFFC002145
:101CC000E013FFF7FBFC24E0EC48844208D101213B
:101CD0004014FFF704FD00216014FFF700FD18E039
:101CE000E748844209D101210805FFF7F8FC0021EB
:101CF0004FF48010FFF7F3FC0BE0E248844208D178
:101D000001214805FFF7EBFC00214FF40010FFF71D
:101D1000E6FC10BD10B50022028802F441520B8887
:101D20004C8823438C882343CC8823430C8923434A
:101D30004C8923438C892343CC8923431A43028053
:101D4000838B4FF2FF74234083830B8A038210BD81
:101D50002DE9F04F0025022300244FF00109002255
:101D60000026002794469046B0F81CA04FF2400B86
:101D70000AEA0B0AA0F81CA04FF0020AA0F820A063
:101D8000858BD1F808A0BAF1020F01D100BF82E023
:101D9000B1F804A0BAF1000F02D14FF0010901E03F
:101DA0004FF00209DFF8E0A2DAF800A00AF4000A16
:101DB000BAF1000F09D0DFF8D0A2DAF800A02AF4B7
:101DC000000ADFF8C4B2CBF800A0DFF8BCA20AF129
:101DD0007C0ADAF800A0CAF3881CDFF8ACA20AF18A
:101DE0007C0ADAF800A0CAF30278DFF89CA2AAF114
:101DF000040ADAF800A00AF03F07DFF88CA2AAF183
:101E0000040ADAF800A00AF4800ABAF5800F08D1B3
:101E1000DFF878A2BAFBF7FA0AFB0CFABAFBF8F67D
:101E200007E0DFF86CA2BAFBF7FA0AFB0CFABAFB80
:101E3000F8F6B1F806A0BAF5007F0ED14FEA162ADF
:101E40000AEB8A0A4FEA4A0AD1F808B0BAFBFBFA51
:101E50000AF1050A1FFA8AF20FE04FEA491AB6FBA7
:101E6000FAFA0AEB8A0A4FEA4A0AD1F808B0BAFB32
:101E7000FBFA0AF1050A1FFA8AF24FF00A0AB2FBCE
:101E8000FAF202F00104A2EB040ACAF34F034FF680
:101E9000FF7A0AEA0424022B01DBFF2B01DD022377
:101EA0000024B1F806A04AEA040A4AEA030AA0F8A4
:101EB00020A0B1F804A0B1F80CB04AEA0B0AB1F8BE
:101EC00002B04AEA0B0AB1F800B04AEA0B0A4AF437
:101ED000006A4AEA05058583BDE8F08F002101808C
:101EE00041808180C180018141818181C18107213F
:101EF000018270470021018041808180C1800221E0
:101F0000816000218181704721B1028842F0400246
:101F1000028004E002884FF6BF731A4002807047C7
:101F200021B1828B42F48062828304E0828B4FF67F
:101F3000FF331A408283704702884FF2FF731A40C2
:101F4000028002880A4302807047B1F5804F04D1B5
:101F5000028842F48042028004E002884BF6FF735C
:101F60001A40028070474FF6FF62914204D0028807
:101F700042F48072028004E002884FF6FF631A4048
:101F80000280704721B1828842F00402828004E01E
:101F900082884FF6FB731A408280704721B1828895
:101FA00042F01002828004E082884FF6EF731A40FC
:101FB0008280704730B500220023848B4FF24005A9
:101FC0002C40848302240484828B0C88B4F5007F27
:101FD00001D00C8814B94FF4807308E00C88B4F574
:101FE000407F03D00C88B4F5807F00D100238C881B
:101FF0008D892C434D882C431C4344F400642243B8
:10200000828330BD0146888970478181704721B144
:10201000028842F40052028004E002884DF6FF7309
:102020001A4002807047018841F480510180704756
:1020300002460020012901D0108B00E0908A7047F1
:102040000146088A70471AB183880B43838002E0F7
:1020500083888B438380704730B5002400230C11A4
:102060000125A540ABB2AAB185881D43858014E047
:102070000030014000380040003C00400034014086
:1020800000500140005401400838024000127A001C
:102090000024F40085889D43858030BD02460020E1
:1020A00013890B400BB1012000E000207047CA43A8
:1020B00002817047F0B5024600200024002300256D
:1020C00001F00F070126BE40B4B20B1101269E405D
:1020D000B3B2968806EA03051689264016B10DB1FB
:1020E000012000E00020F0BD10B5002201F00F0437
:1020F0000123A3409AB2D343038110BD10B5044617
:10210000FE48844208D101210846FFF7E8FA002181
:102110000120FFF7E4FA9DE0B4F1804F08D10121DE
:102120000846FFF7CBFA00210120FFF7C7FA91E03C
:10213000F348844208D101210220FFF7BFFA0021B1
:102140000220FFF7BBFA85E0EE48844208D1012166
:102150000420FFF7B3FA00210420FFF7AFFA79E07B
:10216000E948844208D101210820FFF7A7FA00219D
:102170000820FFF7A3FA6DE0E448844208D101216A
:102180001020FFF79BFA00211020FFF797FA61E07B
:10219000DF48844208D101212020FFF78FFA002177
:1021A0002020FFF78BFA55E0DA48844208D101215C
:1021B0000220FFF794FA00210220FFF790FA49E08D
:1021C000D548844209D101210804FFF788FA00218B
:1021D0004FF48030FFF783FA3CE0D048844209D1C5
:1021E00001214804FFF77BFA00214FF40030FFF78C
:1021F00076FA2FE0CA48844209D101218804FFF70A
:102200006EFA00214FF48020FFF769FA22E0C548FA
:10221000844208D101214020FFF750FA00214020DC
:10222000FFF74CFA16E0C048844208D10121802013
:10223000FFF744FA00218020FFF740FA0AE0BB488C
:10224000844207D101218015FFF738FA0021A0153B
:10225000FFF734FA10BD00220288A84B98420ED036
:10226000AC4B98420BD0B0F1804F08D0A44B9842B1
:1022700005D0A44B984202D0A34B984204D14FF60C
:102280008F731A404B881A43A04B984207D0A04B3B
:10229000984204D04FF6FF431A400B891A4302803C
:1022A0004B68C3620B880385944B984202D0994BCC
:1022B000984201D18B7A03860123838270474FF0C5
:1022C000FF314160002101800181418081727047AE
:1022D0000185828270470A46002101884FF68F737C
:1022E000194011430180704741627047C1627047D5
:1022F0000146486A70470146088D704721B102883F
:1023000042F00202028004E002884FF6FD731A4098
:102310000280704721B1028842F00402028004E08A
:1023200002884FF6FB731A400280704721B1028881
:1023300042F08002028004E002884FF67F731A4068
:102340000280704702884FF6F7731A4002800288B5
:102350000A430280704702884FF6FF431A4002800A
:1023600002880A430280704721B1028842F00102CC
:10237000028004E002884FF6FE731A400280704724
:1023800070B5002400220023058C4FF6FE76354000
:102390000584028C8388048B4FF68F752C40B51E04
:1023A0002C400D882C43751E2A408D892A434D8868
:1023B0002A43524DA84202D0564DA84213D14FF69F
:1023C000F7752A40CD892A434FF6FB752A408D8840
:1023D0002A434FF6FF652B404FF6FF552B400D8AE1
:1023E0002B434D8A2B43838004838D68456302848D
:1023F00070BD70B5002400220023058C4FF6EF76E7
:1024000035400584028C8388048B48F6FF752C4088
:102410004FF6FF452C400D884FF6FF7606EA05255E
:102420002C434FF6DF752A408D8906EA05152A43AD
:102430004D8806EA05152A43304DA84202D0354D95
:10244000A8421DD14FF67F752A40CD894FF6FF7601
:1024500006EA05152A434FF6BF752A408D8806EA1D
:1024600005152A434FF6FF352B404FF2FF752B40E1
:102470000D8A06EA85052B434D8A06EA85052B431E
:10248000838004838D688563028470BD70B50024E9
:1024900000220023058C4FF6FF6635400584028C30
:1024A0008388848B4FF68F752C404FF6FC752C403B
:1024B0000D882C434FF6FF552A408D894FF6FF7645
:1024C00006EA05252A434D8806EA05252A430B4DD1
:1024D000A84202D00F4DA84238D14FF2FF752A40D2
:1024E000CD894FF6FF7606EA05252A434FF6FF35DC
:1024F0002A408D8806EA05252A4319E0000001409C
:102500000004004000080040000C004000100040A3
:10251000001400400004014000400140004401401C
:102520000048014000180040001C0040002000400E
:102530004EF6FF752B404DF6FF752B400D8A06EACF
:1025400005152B434D8A06EA05152B4383808483AA
:102550008D68C563028470BD70B50022002300241D
:10256000058C4EF6FF7635400584038C8488828B7B
:1025700048F6FF752A404FF6FF452A400D884FF672
:10258000FF7606EA05252A434DF6FF752B408D8917
:1025900006EA05352B434D8806EA05352B43FE4DEB
:1025A000A84202D0FD4DA84208D14BF6FF752C4041
:1025B0000D8A4FF6FF7606EA85152C4384808283C8
:1025C0008D680564038470BD002101804180818095
:1025D00081608181C18101824182704770B503466B
:1025E000002000241846183001258D40ACB21D8C07
:1025F000A5431D8409B108290AD100EB61000568D3
:102600004FF68F76354005600568154305600FE08D
:102610000D1FC5F34E052844056848F6FF76354082
:10262000056005684FF6FF7606EA02263543056029
:1026300070BD4163704781637047C1637047016437
:1026400070470A460021018B4FF68F7319401143E2
:10265000018370470A460021018B48F6FF73194039
:102660004FF6FF7303EA02231943018370470A46BA
:102670000021818B4FF68F7319401143818370477E
:102680000A460021818B48F6FF7319404FF6FF730D
:1026900003EA02231943818370470A460021018B14
:1026A0004FF6F77319401143018370470A46002122
:1026B000018B4FF2FF7319404FF6FF7303EA0223B9
:1026C0001943018370470A460021818B4FF6F77347
:1026D00019401143818370470A460021818B4FF2D4
:1026E000FF7319404FF6FF7303EA022319438183F6
:1026F00070470A460021018B4FF6FB7319401143C6
:10270000018370470A460021018B4FF6FF331940C1
:102710004FF6FF7303EA02231943018370470A4609
:102720000021818B4FF6FB73194011438183704761
:102730000A460021818B4FF6FF3319404FF6FF7395
:1027400003EA02231943818370470A460021018B63
:102750004FF67F7319401143018370470A460021E9
:10276000018BC1F30E014FF6FF7303EA02231943F5
:10277000018370470A460021818B4FF67F73194011
:102780001143818370470A460021818BC1F30E01FA
:102790004FF6FF7303EA02231943818370470A4609
:1027A0000021018C4FF6FD731940114301847047DD
:1027B0000A460021018C4FF6F7731940114301843A
:1027C00070470A460021018C4FF6DF7319404FF61F
:1027D000FF7303EA02131943018470470A4600217C
:1027E000018C4FF67F7319404FF6FF7303EA021313
:1027F0001943018470470A460021018C4FF6FF53AC
:1028000019404FF6FF7303EA02231943018470470E
:102810000A460021018C4FF2FF7319404FF6FF73F7
:1028200003EA02231943018470470A460021018C00
:102830004DF6FF7319404FF6FF7303EA0233194355
:102840000184704730B5002301248C40A3B2048C6E
:102850009C430484048C02FA01F5ADB22C43048439
:1028600030BD30B5002304248C40A3B2048C9C43BB
:102870000484048C02FA01F5ADB22C43048430BD0B
:10288000828B4FF2FF331A408283828B4FF6FF73A5
:1028900003EA01231A4382837047F0B50C461546BC
:1028A000002100220026078C4EF6FF7C07EA0C0769
:1028B0000784818B028C4FF6FF7707EA043640F6D7
:1028C000FF4739404FF6FF7707EA052739434FF6B0
:1028D000FF7707EA0337394345F6FF773A4046F476
:1028E00080573A4381830284F0BD828B4FF6F373A5
:1028F0001A408283828B0A4382837047F0B50C466C
:102900001546002100220026078C4FF6FF6C07EACF
:102910000C070784818B028C4FF6FF7707EA0426A9
:102920004FF60C7739404FF6FF7707EA03172F432E
:1029300039434FF2FF573A4046F480773A43818358
:102940000284F0BD028B4FF2FF331A400283028BE8
:102950004FF6FF7303EA01231A4302837047F0B571
:102960000C461546002100220026078C4FF6EF7C0E
:1029700007EA0C070784018B028C4FF6FF7707EA02
:10298000041640F6FF4739404FF6FF7707EA033752
:1029900039434FF6FF7703E0000001400004014097
:1029A00007EA052739434FF65F773A4046F01007AC
:1029B0003A4301830284F0BD028B4FF6F3731A4051
:1029C0000283028B0A4302837047F0B50C4615461A
:1029D00000210022068C4FF6FE773E400684018BD4
:1029E000028C4FF60C7631407E1C06EA03162E430D
:1029F00031434FF6F576324044F00106324301830D
:102A00000284F0BD70B505460C46208850B9238974
:102A1000A28861882846FFF7D8FFE1882846FFF79B
:102A2000CBFF25E0208804280AD12389A288618869
:102A30002846FFF794FFE1882846FFF783FF17E059
:102A4000208808280AD12389A28861882846FFF7B0
:102A500055FFE1882846FFF748FF09E02389A2884F
:102A600061882846FFF719FFE1882846FFF708FF2D
:102A700070BD002101804180012181800021C18041
:102A8000018170472DE9F04105460C4600260127DB
:102A9000608808B9022600E00026A088012801D13C
:102AA000022700E001272088A0B92389A288618835
:102AB0002846FFF78AFFE1882846FFF77DFF238934
:102AC0003A4631462846FFF74AFFE1882846FFF795
:102AD00039FF13E02389A28861882846FFF73FFF6A
:102AE000E1882846FFF72EFF23893A4631462846DB
:102AF000FFF76BFFE1882846FFF75EFFBDE8F08136
:102B00000146486B70470146886B70470146C86BA9
:102B100070470146086C70470A884B881A438B88B7
:102B20001A43CB881A430B891A434B891A438B8962
:102B30001A43A0F844207047002101804180818021
:102B4000C180018141818181704731B1B0F8442059
:102B500042F40042A0F8442005E0B0F84420C2F35B
:102B60000E02A0F84420704721B1828842F004028E
:102B7000828004E082884FF6FB731A40828070479F
:102B800021B1828842F00102828004E082884FF6FF
:102B9000FE731A40828070471AB183890B43838188
:102BA00002E083898B4383817047818270470246AC
:102BB0000020138A0B400BB1012000E00020704779
:102BC000CA430282704730B5024600200023002429
:102BD000158A05EA0103958905EA010413B10CB1D0
:102BE000012000E0002030BDCA430282704741EA64
:102BF0000203A0F8483070471AB183890B438381E0
:102C000002E083898B438381704721B1828842F03F
:102C10000802828004E082884FF6F7731A408280AF
:102C2000704701894FF6F8721140018170470A46DA
:102C3000002101894FF68F731940114301817047BC
:102C400030B504460D4629462046FFF7F0FF20899F
:102C500040F00700208130BD2DE9F04104460D46CB
:102C600016461F46602D06D13B46012231462046BE
:102C7000FFF775FE05E03B46012231462046FFF78F
:102C8000A4FE29462046FFF7D2FF208940F0070026
:102C90002081BDE8F08130B50C4600210189C9B220
:102CA0004FF6FF7505EA03251543254329430181A6
:102CB00030BD2DE9F04105460E46174698460024E2
:102CC00043463A4631462846FFF7E5FF2C894FF642
:102CD000F870044044F007044FF68F70044044F04D
:102CE00070042C81BDE8F081F0B504460D4616460F
:102CF0001F463B46324629462046FFF7CCFF208937
:102D000040F480402081F0BD82884FF68F731A40D6
:102D1000828082880A438280704702894FF6F87366
:102D20001A40028102890A430281704702894FF6E4
:102D30007F731A40028102890A4302817047F0B50D
:102D40000C4615461E460021002200230189028BF5
:102D5000038C4FF6F877394021434FF6FC473A4051
:102D600040F201173A434FF6DD773B404FF6FF77CD
:102D700007EA06172F433B43018102830384F0BD1A
:102D800021B1828842F08002828004E082884FF67E
:102D90007F731A4082807047A0F85010704700007F
:102DA0007CB5002514E06946284601F013FE06466E
:102DB00066B9F74850F8254044B1012C06D0D4E953
:102DC000020100EB810060640198A064681CC5B238
:102DD0003F2DE8D97CBD002400BF02E0282001F08F
:102DE00003FFEC4800780028F8D0EB480068642125
:102DF000B0FBF1F0E84908600846006828B90020F7
:102E0000E6490870FF2001F027FE00BF02F0A6F897
:102E10000446E3480068E34908600020E049086090
:102E2000204602F09FF8DF480068DB490968B0FBE4
:102E3000F1F0C0F16400D949087001F0B2FFFFF76A
:102E4000AFFF142001F0D0FEE0E700B587B003200B
:102E500000218022D44BCDE90132CDE903104FF699
:102E6000FE703E23D14A0090AFF2950001F0CBFBFB
:102E700006AACFA13E2001F02FFD07B000BD00241F
:102E800000BF00BF02F06AF80446C5480068401C55
:102E9000C3490860204602F065F801F081FFF1E7C0
:102EA00000B587B0032000218022C54BCDE9013257
:102EB000CDE903104FF6FF703F23C24A0090AFF2F6
:102EC000410001F0A0FB06AABFA13F2001F004FDD4
:102ED00007B000BD04E0002200F8012B4A1E91B2A9
:102EE0000029F8D1704770B5C821BB48FFF7F2FF41
:102EF00000230FE0581C85B203EB8300B64901EBB9
:102F0000800405EB850001EB8006002020706660E0
:102F1000581C83B2092BEDD303EB8300AE4901EBC0
:102F200080040020207060600846AC49086070BDD5
:102F300070B54FF47C71AA48FFF7CCFF4FF4807155
:102F40009348FFF7C7FF002413E0601CC5B2C4EB31
:102F5000C40000EB4000A24901EB8003C5EBC500B3
:102F600000EB400001EB80065E619EA0D864601C0F
:102F7000C4B20B2CE9D3C4EBC40000EB4000984969
:102F800001EB80030020586196A0D8640020964988
:102F9000086093489549086070BD0021944A1170FB
:102FA000002004E00021934A1154411CC8B20828B3
:102FB000F8D30021904A1170904A1170904A116024
:102FC000904A1160704700208F4908608F4908704F
:102FD0008F4908708F4908708F4908708F490860C1
:102FE0006F4908606F4908606B490860694908705B
:102FF000704710B501F0D0FEFFF7E5FFFFF7CDFFFA
:10300000FFF796FFFFF76FFF00F0EAFE01F0E1F92E
:10301000FFF746FFFFF719FF01F0BFFE10BD7E4826
:103020000078012808D179480078FF2804D2774831
:103030000078401C75490870704779496C4A1278CD
:10304000885C6C49095C764A515C01EBC0016B4AB3
:103050001170704710B500246F480078012830D1F6
:1030600001F07CFF04466948007820B16748007889
:10307000401E6649087065480078F8B964480078D1
:10308000E0B9FFF7DAFF42485C49097850F82100BF
:103090005B490860594800785749097888420DD043
:1030A00057480068806B401C5549096888635B4835
:1030B0000068401C5949086001F070FF204601F08B
:1030C00051FF10BD10B5002453480078012811D1DC
:1030D00001F044FF04464D48007840B94C48007860
:1030E000FF2804D24A480078401C4949087020460D
:1030F00001F038FF10BD10B5002401F02FFF044689
:1031000042480078F8B942480078E0B9FFF795FFE7
:103110001F483A49097850F8210039490860374872
:1031200000783549097888420DD035480068806BB1
:10313000401C33490968886338480068401C374997
:10314000086001F024FF204601F00CFF10BD10B50F
:1031500000243148007801286FD101F0FFFE0446B9
:103160002B48007880B12A480078401E2849087012
:103170000846007848B92548007838B9204601F05B
:10318000F1FEFFF7B8FF58E054E04FE04AE00000DE
:10319000FC13002070000020680000206400002064
:1031A000800000206C000020FC0F0020F81100209F
:1031B00075432F4F532D494920537461740000000B
:1031C000FC110020F813002075432F4F532D49495F
:1031D0002049646C65000000E40E00205C000020C3
:1031E000FC1400203F000000900000208800002018
:1031F000750000207600002073000020740000207D
:103200008C000020840000209C0000207100002021
:10321000720000207F0000207E0000205800002067
:10322000E8A60008204601F09DFE06E0204601F0D9
:1032300099FE02E0204601F095FE10BD10B5EB4866
:10324000007890B9FFF7F9FEE9480078E94908707D
:10325000E948E749097850F82100E849086008463C
:103260000068E749086001F080FE10BD10B5002439
:10327000022001F0B9FC01F071FE04460020E14992
:103280000860204601F06EFE142001F0ADFC01F054
:1032900065FE0446DB480068DB4908600120DB4925
:1032A0000870204601F05EFE10BD70B5002601F0EA
:1032B00050FE01F053FE0646D5480068401CD44934
:1032C0000860304601F04EFEC8480078012853D10E
:1032D000D048007820B1012804D0022809D103E0A9
:1032E00001250BE0002509E001250120C9490870EE
:1032F00004E001250020C749087000BF00BF05B9E0
:1033000070BDC548046833E001F028FE0646E06A57
:1033100050B3E06A401EE062E06A28BB94F83000D7
:1033200000F0370040B114F8300F00F0C8002070F2
:1033300001206070303C02E0002084F8310094F8F5
:10334000300000F0080078B93434A078B349097827
:103350000843B24908702078B149085C6178084395
:1033600014F83419AE4A50546469304601F0FAFD3D
:1033700094F832003F28C7D100BFC1E740F22310C4
:103380007047704710B590F8342001F10B039B5C37
:1033900090F83540A34301F10B04A35423469B5CF2
:1033A00023B98B7A90F83640A3438B7210BD2DE978
:1033B000F04F05460F4690469946A87A99490E5C0B
:1033C00005F10B00805D11F800B00BEBC60000F0BA
:1033D000FF0A894850F82A4000202034E060276026
:1033E000207C20EA0800207484F81190207C203C86
:1033F00000F0080068B994F8360088490978084355
:10340000864908708648805D94F8351008438449E1
:10341000885529462046FFF7B5FF5046BDE8F08F96
:1034200010B5774A1268D061754A126892F8343044
:1034300000F10B02D25C724B1B6893F835301A43D3
:103440006F4B1B6893F8344000F10B031A55827AD6
:103450006B4B1B6893F836301A438272684A1268C5
:1034600092F834106E4A525C654B1B6893F8353005
:103470009A436B4B5A541A46525C42B9604A1268DE
:1034800092F83630654A12789A43644B1A7010BD30
:10349000014600228A72002005E0002301F10B02A0
:1034A0001354421CD0B20828F7D3704705E011F836
:1034B000013B00F8013B531E9AB2002AF7D1704736
:1034C0000146002002E0491C421CD0B20A78002AC2
:1034D000F9D170472DE9F84F05460F4690469946B9
:1034E000DDE90AAB0020009001F038FD00904E4865
:1034F0000468002C75D0183454F8040C4A4908604C
:10350000009801F02FFD44F8187CA5760020207665
:103510006076606144F814BC44F80CAC44F8108C3C
:103520000C9824F8080C24F8069C0020E077E8109A
:10353000207705F00700E076217F01208840A07702
:10354000E17E01208840607700206060E060A0603C
:103550002062A0626062E0622063AFF27830606354
:10356000183C002606E0002104F1500040F8261027
:10357000701CC6B2002EF6D0204601F0E9FC2046B1
:1035800001F00CFC01F0EAFC00901B4840F82540DB
:103590002148006860610020A0611F48006810B1E8
:1035A0001D48006884611C4804603434A0781B49BD
:1035B000097808431949087020781949085C61782E
:1035C000084314F83419164A505418480078401C1F
:1035D00016490870009801F0C5FC0020BDE8F88F7E
:1035E000FFE7009801F0BEFC4220F7E77E000020D4
:1035F0007400002073000020FC1300208C000020C9
:10360000840000208000002068000020700000205E
:103610009C000020940000209000002075000020F5
:1036200076000020E8A60008880000207F00002027
:103630002DE9F05F04460F4691461E464FF0000B01
:103640002078052804D0012030700020BDE8F09FCC
:1036500009F0800ABAF1000F04D029F080094FF078
:10366000010801E04FF000080020307001F076FC06
:103670008346B9F1000F2CD0B9F1010F3BD0B9F15D
:10368000020F03D0B9F1030F46D111E0208900EAFF
:103690000705BD4206D1B8F1010F05D12089A84325
:1036A000208101E070203070584601F05BFC3AE068
:1036B000208900EA070535B1B8F1010F05D120894D
:1036C000A843208101E070203070584601F04AFC88
:1036D00029E0208927EA0005BD4206D1B8F1010F93
:1036E00005D120892843208101E0702030705846A0
:1036F00001F038FC17E0208927EA000535B1B8F160
:10370000010F05D120892843208101E0702030700D
:10371000584601F027FC06E0584601F023FC00253E
:103720006F20307000BF00BF28468FE72DE9F041C1
:1037300006460D460027FA48007820B11020287070
:103740000020BDE8F08101F009FC0746F548046857
:1037500084B100684068F349086005202070268124
:1037600000206060F0A0E060384601F0FBFB002024
:10377000287004E0384601F0F5FB722028702046DE
:10378000DFE730B501464A6808682AB9CC6860604E
:1037900028B10025456002E0106000B142608B68EE
:1037A00000255D6230BDF0B506460F46B4680020C6
:1037B000283460602780207A00F0DF00207200202B
:1037C0006072207A283C88B93434A078D7490978C7
:1037D0000843D64908702078D549085C61780843C9
:1037E00014F83419D24A5054012500E0002530461F
:1037F000FFF7C7FF2846F0BD2DE9F047044689468C
:1038000015464FF0000AC648007820B10F202870F6
:103810002046BDE8F0872078052803D001202870D5
:103820002046F6E701F09AFB8246606808B101275E
:1038300000E00027B9F1000F03D0B9F1010F3CD12E
:1038400019E08FB9B8A0E06000202070B54800688A
:10385000606000202081B3480460504601F082FB84
:1038600000202870002605E0504601F07BFB49202F
:103870002870264628E0D4F8048005E00021404660
:10388000FFF791FFD8F80080B8F1000FF6D1A6A09D
:10389000E06000202070A348006860600020208164
:1038A000A0480460504601F05DFB012F01D1FFF7F5
:1038B00022FC00202870002606E0504601F052FB52
:1038C00007202870264600BF00BF3046A1E72DE93B
:1038D000F04105460E46144600279148007820B175
:1038E000112020700020BDE8F08101F037FB074671
:1038F0002878052806D0384601F034FB01202070D6
:103900000020F0E7E86830603068FFF7D9FD8046B6
:10391000384601F027FB002020704046E3E72DE900
:10392000F04105460E46144600277D48007818B140
:1039300012202070BDE8F08101F010FB07462878C6
:10394000052805D0384601F00DFB01202070F1E775
:10395000EE60384601F006FB0020207000BFE9E76A
:10396000F0B51446059E734F3F6897F8307047F0E6
:103970002007DFF8C0C1DCF800C08CF830700027E9
:10398000DFF8B0C1DCF800C08CF83170694F3F68D7
:10399000FE62684F3F6879620C828B74654F3F68A6
:1039A0008F6047680F6000274F60C860456805B1A9
:1039B000696041605F4F3F6897F834205C4FBF5C9F
:1039C000DFF870C1DCF800C09CF835C027EA0C07AE
:1039D000DFF85CC10CF802706746BF5C5FB9554FF9
:1039E0003F6897F836C0514F3F7827EA0C07DFF859
:1039F0003CC18CF80070F0BD2DE9F04F89B0054650
:103A00000F4691469A46129E002002904448007844
:103A100028B102203070002009B0BDE8F08F464880
:103A2000007818B10D2030700020F5E728780528BF
:103A300003D0012030700020EEE709F0800BBBF1CD
:103A4000000F04D009F07F094FF0010801E04FF0AA
:103A5000000801F083FA0290B9F1000F4AD0B9F1E1
:103A6000010F78D0B9F1020F03D0B9F1030F71D172
:103A700020E0288900EA0704BC420FD1B8F1010F09
:103A800002D12889A04328812A4800680485029829
:103A900001F068FA002030702046BDE74B463A46F8
:103AA00004A92846CDF800A0FFF75AFF029801F0BC
:103AB00059FA78E0288900EA07047CB1B8F1010FCF
:103AC00002D12889A04328811A48006804850298F9
:103AD00001F048FA0020307020469DE74B463A46F8
:103AE00004A92846CDF800A0FFF73AFF029801F09C
:103AF00039FA58E0288927EA0004BC421ED1B8F1FF
:103B0000010F02D12889204328810A4800680485D2
:103B1000029801F027FA0020307020467CE71AE076
:103B200071000020600000203F00000075000020B0
:103B30007600002084000020720000204B463A46A8
:103B400004A92846CDF800A0FFF70AFF029801F06B
:103B500009FA28E01FE0288927EA00047CB1B8F1BF
:103B6000010F02D1288920432881B14800680485CB
:103B7000029801F0F7F90020307020464CE74B46E0
:103B80003A4604A92846CDF800A0FFF7E9FE0298BE
:103B900001F0E8F907E0029801F0E4F900246F2051
:103BA0003070204638E700BFFFF7A5FA01F0D6F9DC
:103BB00002909F48006890F8310020B39C4800684C
:103BC00090F83100039000209949096881F831008C
:103BD00004A8FFF7D6FD00209549096881F8300058
:103BE000029801F0BFF900240398012805D00228AB
:103BF00002D10E20307003E000BF0A20307000BFF9
:103C000000BF204608E78A480068048DB8F1010F1C
:103C10001ED1B9F1000F0ED0B9F1010F0CD0B9F1DE
:103C2000020F03D0B9F1030F0AD100E000BF2889C9
:103C3000A04328810BE000BF28892043288106E0AB
:103C4000029801F08FF96F2030700020E4E600BF89
:103C5000029801F087F9002030702046DCE670B54C
:103C6000002501F07BF9054671480068048D28465F
:103C700001F078F9204670BD2DE9FC5F04468946C5
:103C800092461E46002000902078052804D001208E
:103C900030700020BDE8FC9F01F060F90090BAF19F
:103CA000000F03D0BAF1010F0AD104E0208920EA05
:103CB000090020810BE0208940EA0900208106E00C
:103CC000009801F04FF9712030700020E2E700BF4A
:103CD0004FF0000B656855E0A87C40B3012838D050
:103CE000022802D0032844D111E02089298A00EA61
:103CF0000107288AB84209D139462846FFF753FD03
:103D00008046B8F1010F01D14FF0010B38E0208956
:103D1000298A00EA01074FB139462846FFF743FDDB
:103D20008046B8F1010F01D14FF0010B28E0288A3D
:103D3000218920EA0107288AB84209D13946284654
:103D4000FFF731FD8046B8F1010F01D14FF0010BB3
:103D500016E0288A218920EA01074FB13946284612
:103D6000FFF721FD8046B8F1010F01D14FF0010BA3
:103D700006E0009801F0F6F86F203070002089E727
:103D800000BF2D68002DA7D1009801F0EBF8BBF122
:103D9000010F01D1FFF7AFF901F0E0F800902089A1
:103DA0000190009801F0DEF800203070019871E772
:103DB0002DE9F04104460D4600272078052804D05F
:103DC000012028700020BDE8F08101F0C7F8074607
:103DD0002689384601F0C6F8002028703046F2E700
:103DE0002DE9F04150211348FFF774F800250EE04B
:103DF000681C86B20F4800EB051400EB0617002084
:103E000020706760AFF2E020E060681C85B2042D8E
:103E1000EED3084800EB0514002020706060AFF27C
:103E2000F820E060034804490860BDE8F081000024
:103E300084000020AC0F0020600000202DE9F0413C
:103E400006460D464FF000083078022804D00120C5
:103E500028700020BDE8F08101F080F88046746889
:103E6000E08A78B12169081D20610F68E08A401E50
:103E7000E082A1682069884201D160682061002049
:103E8000287002E01F2028700027404601F06AF8E1
:103E90003846DFE72DE9F04106460F464FF00008AF
:103EA000F748007810B10020BDE8F08101F056F825
:103EB0008046F4480568006820B1F2480068406810
:103EC000F0490860404601F04DF83DB301F046F876
:103ED0008046ED480468C4B100680068EA4908609B
:103EE000404601F03FF8666006EB8700A060E660A0
:103EF0002661A7820020E08202202870002028810D
:103F00006C602846FFF7C4FA08E0DE480068686085
:103F1000DC480560404601F025F800252846C3E747
:103F20002DE9F0470446894615464FF0000A2078EF
:103F3000022804D0012028702046BDE8F087D04830
:103F4000007818B10F2028702046F6E701F006F837
:103F50008246A07A10B14FF0010801E04FF000084E
:103F6000B9F1000F03D0B9F1010F45D11FE0B8F14D
:103F7000000F15D16668C44800683060C24806600A
:103F800000202070BF480068606000202081BD488C
:103F90000460504600F0E6FF00202870002705E08E
:103FA000504600F0DFFF4920287027462BE005E04F
:103FB0000023042219462046FFF7F9F9A07A0028C9
:103FC000F6D16668B04800683060AF4806600020EF
:103FD0002070AC480068606000202081A94804601F
:103FE000504600F0BFFFB8F1010F01D1FFF783F891
:103FF00000202870002706E0504600F0B3FF07209D
:104000002870274600BF00BF384696E770B50546C2
:10401000002600F0A3FF06466C686068E0606068F8
:1040200020610020E082304600F09CFF002070BD3F
:104030002DE9F0470746884615464FF000093878C5
:10404000022804D0012028700020BDE8F0878C48A9
:10405000007818B1022028700020F6E78B4800781D
:1040600018B10D2028700020EFE700F077FF81469F
:104070007C68E08A98B12169081D20610E68E08A99
:10408000401EE082A1682069884201D160682061F9
:10409000484600F067FF002028703046D5E77C488E
:1040A000006890F8300040F004007949096881F810
:1040B000300000207649096881F8310074480068B2
:1040C000C0F82C803846FFF7ABF9484600F04AFFAD
:1040D000FFF711F800F042FF81466D48006890F844
:1040E000310020B101280DD002280AD105E068482E
:1040F0000068066A002028700DE000260E20287057
:1041000009E000BF394662480068FFF73BF9002626
:104110000A20287000BF00BF00205D49096881F8AF
:1041200030005B49096881F8310059490968C86164
:10413000574909680862484600F014FF304684E792
:104140002DE9F04104460F4615464FF0000820784F
:10415000022804D0012028700020BDE8F08100F082
:10416000FDFE8046A07A20B300267FB1012F0CD13E
:1041700007E00223042200212046FFF718F9701CF3
:10418000C6B2A07A0028F4D109E000BF02230422BD
:1041900000212046FFF70BF9701CC6B200BF00BF1C
:1041A000404600F0DFFEFEF7A6FF0E2028703046E6
:1041B000D3E7404600F0D6FE0020287000BFCCE7D1
:1041C0002DE9F04105460E4600272878022802D046
:1041D0000120BDE8F08100F0C1FE0746A87A60B179
:1041E0000023042231462846FFF7E1F8384600F064
:1041F000B9FEFEF780FF0020EBE76C68E08AA18A39
:10420000884204DB384600F0ADFE1E20E1E7E1689D
:10421000081DE0600E60E08A401CE082D4E90210D4
:10422000884201D16068E060384600F09BFE0020C3
:10423000CFE72DE9F04105460E46002728780228F1
:1042400002D00120BDE8F08100F088FE0746A87A80
:1042500060B10023042231462846FFF7A8F838460B
:1042600000F080FEFEF747FF0020EBE76C68E08A75
:10427000A18A88420EDB384600F074FE1E20E1E77A
:10428000710000205C0000209800002072000020D7
:104290008400002061682069884201D1A068206103
:1042A0002069001F206120690660E08A401CE082CE
:1042B000384600F057FE0020C4E72DE9F0410546DE
:1042C0000F4616464FF000082878022802D0012039
:1042D000BDE8F08100F042FE8046A87AE8B106F021
:1042E000010050B105E00023042239462846FFF7BB
:1042F0005EF8A87A0028F6D105E0002304223946AA
:104300002846FFF754F8404600F02CFE06F0040063
:1043100008B9FEF7F0FE0020DAE76C68E08AA18AAF
:10432000884204DB404600F01DFE1E20D0E706F068
:10433000020058B161682069884201D1A0682061FB
:104340002069001F20612069076009E0E168081DFD
:10435000E0600F60D4E90210884201D16068E0603B
:10436000E08A401CE082404600F0FCFD0020AFE700
:104370002DE9F04705460C464FF0000A2878022840
:1043800002D00120BDE8F08700F0E8FD8246A87A5F
:10439000207405F10B0804F10809002705E018F85E
:1043A000010B09F8010B781CC7B2082FF7D36E6810
:1043B000F08A18B130690068206001E000202060B8
:1043C000F08AA080B08AE080504600F0CBFD00204B
:1043D000D8E72DE9F04178211048FEF77BFD002455
:1043E0000DE0601C86B204EB44000C4901EBC005F3
:1043F00006EB460001EBC0072F60601C84B2042C62
:10440000EFD304EB4400054901EBC0050020286010
:10441000084603490860BDE8F0810000EC18002060
:10442000980000202DE9FF5F81468846002000901B
:1044300000F094FD0090F94850F8280030B1009841
:1044400000F090FD282004B0BDE8F09FB9F1FF0F07
:1044500003D1F348006890F83290F04850F82940B2
:1044600024B9009800F07EFD2920ECE7012C04D14E
:10447000009800F077FD4320E5E74FEAE80708F0F1
:10448000070003900120B84000F0FF0A01210398C3
:10449000814001F0FF0B0020E04941F82900084667
:1044A00040F8284014F8346FA07802906078343CCB
:1044B0000190DC48815D01980140D1B1D948805D0F
:1044C00001998843D74988550846805D28B9D64860
:1044D000007802998843D4490870D348007840EAAC
:1044E0000A00D1490870CF48C05D40EA0B00CD49B1
:1044F000C855E569D5B105F10B00805D0199884388
:1045000005F10B0188550846805D18B9A87A029913
:104510008843A872A87A40EA0A00A87205F10B0045
:10452000C05D40EA0B0005F10B01C85584F83280EC
:1045300084F83470039884F8330084F836A084F843
:1045400035B0009800F00EFDB8480078012801D180
:10455000FEF7D1FD002076E72DE9FE4F06460F4617
:1045600090461C464FF0000900F0F8FC8146B04828
:10457000007828B1484600F0F5FC3C20BDE8FE8FED
:10458000A64850F8240060BB0120A44941F824004B
:10459000484600F0E7FC002342463946304600F02A
:1045A00001FC8246002000900190034602465146DD
:1045B00002902046FEF78EFF054635B99B480078ED
:1045C00001280CD1FEF797FD09E000F0C7FC8146F9
:1045D0000020924941F82400484600F0C3FC2846D8
:1045E000CCE7484600F0BEFC2820C7E702F00103F4
:1045F00043B102F002032BB102E0491E002308C0C0
:104600000029FAD170472DE9F04F85B081468A46DE
:1046100093461C46DDE90F78129D0020039000F0C0
:104620009DFC03908248007830B1039800F09AFC1A
:104630003C2005B0BDE8F08F784850F8240088BBD6
:104640000120764941F82400039800F08BFC2A46AB
:1046500041463846FFF7CAFF2B465A465146484660
:1046600000F0A0FB04901198CDE9008002953A4635
:1046700020460E9B0499FEF72DFF064636B96B487F
:10468000007801280CD1FEF736FD09E000F066FC49
:1046900003900020614941F82400039800F062FC77
:1046A0003046C6E7FFE7039800F05CFC2820C0E72F
:1046B0002DE9F041054600275D48007810B1402003
:1046C000BDE8F0813F2D01D13E20F9E700F046FC26
:1046D0000746FF2D03D15248006890F832504F48EA
:1046E00050F8254024B9384600F03CFC4320E7E769
:1046F000012C04D1384600F035FC3D20E0E714F8E9
:10470000340F4849085C617888432178454A505401
:1047100014F834091146085C30B994F83610424850
:104720000078884340490870E06918B12046E16983
:10473000FEF728FE666A16B13046FFF722F8002021
:10474000E06284F8300084F831003A480078FF28AD
:1047500004D238480078401C36490870384600F0CA
:1047600001FCFEF70EFE00F0F9FB07463148007829
:1047700020B130480078401E2E490870204600F0D5
:104780000EFB2D480078401E2B490870002023495D
:1047900041F82500A06930B9002061698861274986
:1047A0006069086005E0D4E905014861D4E90510B5
:1047B00088612348006860612148046021A0E064AA
:1047C000384600F0CFFB19480078012801D1FEF7E8
:1047D00092FC002074E72DE9F041044600273F2CAD
:1047E00002D13E20BDE8F081FF2C0BD100F0B6FBDA
:1047F00007460B48006890F83760384600F0B2FB77
:104800003046EFE700F0AAFB0746044850F8245072
:10481000D5B9384600F0A6FB4320E3E7FC1300209F
:104820008400002076000020750000207E0000201B
:1048300071000020720000207F0000209000002006
:10484000880000203F000000012D04D1384600F010
:1048500089FB3D20C6E73F2085F83700384600F049
:1048600081FB0020BEE72DE9F04706460F461446BF
:104870004FF00008D648007820B1112020700020A9
:10488000BDE8F08700F06AFB8046FF2E03D1D148D7
:10489000006890F83260D04850F8265035B940464C
:1048A00000F060FB432020700020E9E7012D06D1D5
:1048B000404600F057FB432020700020E0E7E86C02
:1048C00038603868FEF7FCFD8146404600F04AFB40
:1048D000002020704846D3E72DE9F04106460F46F8
:1048E00014464FF00008BA48007818B11220207022
:1048F000BDE8F08100F032FB8046FF2E03D1B548C1
:10490000006890F83260B44850F826502DB94046FF
:1049100000F028FB43202070EAE7012D05D1404636
:1049200000F020FB43202070E2E7EF64404600F0F7
:1049300019FB0020207000BFDAE770B5054600269D
:1049400000F00CFB0646A44850F8254024B9304638
:1049500000F008FB462070BD012C04D1304600F069
:1049600001FB4320F7E794F8300000F0080060B343
:1049700014F8300F00F0F700207014F83009F8B97F
:10498000E06AC8B93434A078944909780843934957
:10499000087020789249085C6178084314F834194B
:1049A0008F4A5054304600F0DDFA8E4800780128D6
:1049B00009D1FEF7A0FB06E0304600F0D3FA02E092
:1049C000304600F0CFFA0020C5E7304600F0CAFAC2
:1049D0004420C0E72DE9F04707460D464FF0000A96
:1049E00000202860686000F0B9FA8246FF2F03D1EA
:1049F0007848006890F83270774850F827402CB912
:104A0000504600F0AFFA4320BDE8F087012C04D1F6
:104A1000504600F0A7FA4320F6E7207C00F00100A2
:104A200020B9504600F09EFA4520EDE70026D4F864
:104A30000C90D4F80880504600F094FA00E0761C00
:104A400058F8041B0029FAD0B0002860A9EB060032
:104A5000800068600020D7E72DE9F04105464FF05F
:104A6000000800F07BFA8046FF2D05D15948006808
:104A700090F83250012608E05648006890F832005D
:104A8000A84201D1012600E00026534850F82540F5
:104A90002CB9404600F066FA4820BDE8F081012CB0
:104AA00004D1404600F05EFA4320F6E794F83470F3
:104AB0004B48C05D94F8351088434949C8550846AD
:104AC000C05D30B994F836104448007888434349B3
:104AD000087094F8300040F0080084F83000404638
:104AE00000F040FA012E01D1FEF705FB0020D4E7CB
:104AF0002DE9F04105460E46002700F02FFA074643
:104B0000FF2D03D13348006890F83250324850F8F6
:104B100025402CB9384600F025FA2920BDE8F0815F
:104B2000012C04D1384600F01DFA4320F6E7542248
:104B300021463046FEF7BAFC384600F013FA002052
:104B4000ECE72DE9F04704460E4617464FF0000902
:104B500000F004FA8146FF2C02D11E48056802E0ED
:104B60001D4850F8245005F1500050F82680484662
:104B700000F0F8F9002038704046BDE8F0872DE9D4
:104B8000F04704460E46174698464FF0000900F0DD
:104B9000E5F98146FF2C02D10E48056802E00E4877
:104BA00050F8245005F1500040F82670484600F0B7
:104BB000D9F9002088F80000BDE8F08710B5054855
:104BC000006800F0C7F9FF20FFF772FD10BD00007C
:104BD0007100002084000020FC13002075000020DC
:104BE000760000207E00002070B505460026634850
:104BF000007800B170BD6248007800B1FAE71DB3DB
:104C000000F0ACF906465F48006890F834405E4812
:104C1000005D5C49096891F8351088435A49085588
:104C20000846005D40B95748006890F8361057486C
:104C3000007888435549087052480068C56230467C
:104C400000F090F9FEF757FA00BFD3E72DE9F041E5
:104C500004460D4616461F464848007810B15520B8
:104C6000BDE8F0814648007808B13220F8E7B81C6A
:104C7000C82148434FF47A71B0FBF1F14FF4616001
:104C80006043C5EB051200EB8200304400EBC0022C
:104C900002EB001001EBC0084046FFF7A5FF002023
:104CA000DEE770B5054600263F2D01D32A2070BDF2
:104CB00000F054F90646364850F8254024B93046ED
:104CC00000F050F94320F2E7012C04D1304600F007
:104CD00049F94320EBE7E06A20B9304600F042F999
:104CE0005020E4E70020E06294F8300000F0370044
:104CF00040B114F8300F20F03700207001206070B0
:104D0000303C02E0002084F8310094F8300000F0DC
:104D10000800A8B93434A0781C49097808431B4915
:104D2000087020781849085C6178084314F8341931
:104D3000154A5054304600F015F9FEF7DCF902E050
:104D4000304600F00FF90020B1E770B5002500F003
:104D500005F905460F480468284600F003F9204687
:104D600070BD70B50446002500F0F8F80546094806
:104D70000460284600F0F6F870BD000071000020C5
:104D800072000020840000207600002075000020C2
:104D9000FC1300209C00002070477047704770474C
:104DA0007047704770B5044610460026051F284618
:104DB0002E604FF48056051F28462E601526051FCD
:104DC00028462E601426051F28462E601326051F30
:104DD00028462E601226051F28462E601126051F24
:104DE00028462E601026051F28462E600926051F1E
:104DF00028462E600826051F28462E600726051F18
:104E000028462E600626051F28462E600526051F0B
:104E100028462E600426051F28462E600326051FFF
:104E200028462E600226051F28462E600126051FF3
:104E300028462E600026051F28462E604FF08075FC
:104E40000560051F28462C60434E051F28462E602E
:104E50004FF01236051F28462E604FF00336051F0F
:104E600028462E604FF00236051F28462E60761029
:104E7000051F28462E60051F284629603126051F7C
:104E800028462E603026051F28462E602926051F3D
:104E900028462E602826051F28462E602726051F37
:104EA00028462E602626051F28462E602526051F2B
:104EB00028462E602426051F28462E602326051F1F
:104EC00028462E602226051F28462E602126051F13
:104ED00028462E602026051F28462E601926051F0D
:104EE00028462E601826051F28462E601726051F07
:104EF00028462E601626051F28462E604FF01136D4
:104F0000051F28462E604FF01036051F28462E60DC
:104F10004FF00936051F28462E604FF00836051F52
:104F200028462E604FF00736051F28462E604FF0AA
:104F30000636051F28462E604FF00536051F284609
:104F40002E604FF00436051F28462E6070BD704756
:104F50007047704770470000BD4B0008EFF31080AA
:104F600072B6704780F310887047264C4FF6FF7575
:104F700025604FF0000484F30988234C4FF00105AD
:104F80002570224C4FF08055256062B6FEE730B4A4
:104F90001E4C4FF08055256030BC704730B41B4C20
:104FA0004FF08055256030BC704700BF72B6EFF3FC
:104FB000098050B11EF0100F08BF20ED108A203874
:104FC00080E8F00F12490968086000B51148804771
:104FD0005DF804EB104811490A7802700C4810493A
:104FE0000A680260106890E8F00F20301EF0100F81
:104FF00008BFB0EC108A80F309884EF0040E62B648
:10500000704700BF22ED00E07E00002004ED00E0CC
:10501000840000204F4F000873000020740000201F
:105020008C00002010B54FF4E130FBF759FE10BDA5
:1050300010B5532140F2E730FBF762FC10BD1CB500
:10504000FBF72DFD01210820FCF79AFA20200090A3
:1050500001208DF8040000208DF8060003208DF853
:10506000050001208DF8070069465D48FBF7EAFF5F
:1050700020215B48FCF762F82020FBF773FDFF203E
:10508000FBF7F4FC1CBD1CB501210820FCF778FAE5
:105090008020009001208DF8040000208DF806008B
:1050A00003208DF8050001208DF8070069464C4863
:1050B000FBF7C8FF80214A48FCF740F840200090E9
:1050C00000208DF8040001208DF80700694644484F
:1050D000FBF7B8FF1CBD10B5044603E04FF47A702F
:1050E000FBF7C6FD201EA4F10104F7D110BD10B5D9
:1050F00020213B48FCF724F810BD10B5202138488A
:10510000FCF71CF810BD10B504462046FBF7AEFCBA
:1051100010BD10B5FF20FBF7A9FC10BD70B505460A
:105120000E46002400BF04E0285DFFF7ECFF601C82
:1051300084B2B442F8DB70BD70B505460E4600245B
:1051400000BF04E0FFF7E5FF2855601C84B2B442BD
:10515000F8DB70BD10B580212148FBF7EFFF0A2076
:10516000FBF786FD80211E48FBF7EAFF0A20FBF7CC
:105170007FFD80211A48FBF7E1FF0A20FBF778FD4D
:1051800010BD10B5AFF28D01AFF29D0001F0B1FA84
:10519000AFF28D01AFF2850001F0D0FAAFF28301DA
:1051A000AFF26B0001F0E0FA10BD10B501210D481F
:1051B000FDF709FD012812D10B480068401C0A497F
:1051C000086008460068B0F57A7F04D303F08BF8D6
:1051D00000200549086001210248FDF705FD10BDCA
:1051E000000C024000040040A000002038B500245C
:1051F0001CE04FF47A70FBF73BFD4FF4645001F074
:10520000C9FD042811D0601CC4B2052C0EDD4FF47A
:10521000645001F0BFFD054686A3042285A10090DD
:10522000864804F003FF00BFFEE700E0E1E700BFAF
:1052300038BD10B54FF4385001F0ACFD044604F011
:10524000020008B1642000E00A2001467CA004F0BE
:10525000EDFE04F0040008B182A000E084A0014645
:1052600086A004F0E3FE10BD08B500BF4FF47A70CD
:10527000FBF7FEFC69460F2001F033FC9DF80000AF
:10528000012805D185A004F0D1FEFFF7D2FF02E08E
:1052900085A004F0CBFE9DF800000028E6D008BDF4
:1052A00010B5FFF76EFFFFF755FFFFF79FFFFFF702
:1052B000DBFF10BD00B589B003A801F0DEFC9DF84E
:1052C0002200022807D17C4804F0B0FE59A17BA03F
:1052D00004F0ACFE06E0784804F0A8FE55A181A0D9
:1052E00004F0A4FE9DF811109DF810009DF80F2009
:1052F000CDE9002002919DF80E309DF80D209DF81B
:105300000C1082A004F092FE9DF8150000909DF80C
:1053100014309DF813209DF8121088A004F086FE2A
:105320009DF8190000909DF818309DF817209DF801
:1053300016108AA004F07AFE9DF81D0000909DF8DA
:105340001C309DF81B209DF81A108CA004F06EFEF6
:1053500003A8407D009003A8037D9DF81F209DF8C1
:105360001E108EA004F062FE944804F05FFE09B0A7
:1053700000BDF0B587B005460E4601270024314632
:10538000284602F01DFF8EA004F050FE39E002F026
:105390003AFE28B1042805D10CB90124002701E008
:1053A000002700BF00BF002F2BD10CB188A000E068
:1053B00089A001468AA004F039FE02F0F8FEF4B19B
:1053C0000DF10A0002F095FF0DF1120002F09EFFB0
:1053D0000DF10E0002F0A7FF0DF1160002F0B0FF74
:1053E00002208DF81A00062201A94FF4106001F086
:1053F00041FD01A801F06AFC012007B0F0BD0020CA
:10540000FBE7C4E770B506460C46204601F05EFC9B
:10541000A07D02280AD131460020FFF7AAFF0546E9
:1054200025B90120A075204601F050FCFFF742FF8E
:1054300070BD00005735353030000000F8A8000876
:105440005468652063757272656E74204D6274696C
:1054500073207370656564203A2025644D62707313
:105460000D0A000046756C6C2D4475706C657800F3
:1054700048616C662D4475706C65780054686520D1
:1054800063757272656E74204475706C6578204D1A
:105490006F6465203A2025730D0A0000504859209A
:1054A0006C696E6B0D0A0000504859206E6F206CBD
:1054B000696E6B0D0A00000090A80008202573207B
:1054C0006E6574776F726B20636F6E666967757255
:1054D0006174696F6E203A20444843500D0A0D0AEA
:1054E00000000000202573206E6574776F726B20BA
:1054F000636F6E66696775726174696F6E203A20BA
:105500007374617469630D0A0D0A0000204D4143F4
:105510002020202020202020203A20253032583AF8
:10552000253032583A253032583A253032583A250B
:105530003032583A253032580D0A000020495020A8
:105540002020202020202020203A2025642E2564A1
:105550002E25642E25640D0A00000000205375627C
:105560006E6574204D61736B203A2025642E25648E
:105570002E25642E25640D0A00000000204761746A
:105580006577617920202020203A2025642E25642B
:105590002E25642E25640D0A0000000020444E5381
:1055A0002020202020202020203A2025642E256441
:1055B0002E25642E25640D0A0000000024A8000892
:1055C000444843502072756E6E696E670D0A000084
:1055D00073756363657373006661696C0000000036
:1055E00044484350202573210D0A000010B504469D
:1055F00000BF082C02DD4FF0FF3010BD00BFA1003E
:10560000491C4FF4807202EBC100102101F0FAFB3B
:1056100000BFA100491C4FF4807202EBC10001F0F1
:10562000B9FB0028F5D1A100491C4FF4007202EB30
:10563000C1001F2101F0E6FB0120A040F8490988C4
:105640008143F74801800120A040F6490988814341
:10565000F44801800020F44921F81400F34908556A
:1056600000BFA100491C4FF4407202EBC10001F0E1
:1056700091FB0028F5D10120BFE7F8B504460E469E
:1056800017461D4600BF082C02DD4FF0FF30F8BD65
:1056900000BF012E06D0022E10D0032E10D0042EF3
:1056A0000FD10CE0042269464FF4706001F0E2FB78
:1056B000009810B96FF00200E9E705E000BF00BFF5
:1056C00002E06FF00400E2E700BF05F0040010B153
:1056D0006FF00500DBE705B3012E02D0022E1AD1D0
:1056E00006E005F0210010B96FF00500CFE713E0E8
:1056F00005F0200028B105F0800010B96FF005001A
:10570000C5E705F0100028B105F0800010B96FF072
:105710000500BCE700E000BF00BF2046FFF766FFC2
:1057200005F0F00242EA0601A200521C002303EB3E
:10573000C20001F067FB7FB9BD4807880088401CA4
:10574000BB490880084600884FF6F071884203D1B3
:105750004FF44040B64908803912A200521C4FF461
:10576000806303EBC20001F04DFBF9B2A200521CB2
:105770004FF4806303EBC20202F5807001F042FB3C
:10578000A100491C4FF4807202EBC100012101F01D
:1057900039FB00BFA100491C4FF4807202EBC1002D
:1057A00001F0F8FA0028F5D10120A0409C490988B1
:1057B00081439B48018005F00100A0409849098879
:1057C0000843974908800120A040964909888143F1
:1057D000944801800020944921F814009349085509
:1057E00000BFA100491C4FF4407202EBC10001F060
:1057F000D1FA0028F5D060B249E710B5044600BFE1
:10580000082C02DD4FF0FF3010BD00BF00BFA1002B
:10581000491C002202EBC10001F0BCFA00F00F00AD
:10582000012802D06FF00400EEE700BF00BFA10026
:10583000491C4FF4407202EBC10001F0ABFA13288F
:1058400002D06FF00200DFE700BFA100491C4FF457
:10585000807202EBC100022101F0D4FA00BFA10066
:10586000491C4FF4807202EBC10001F093FA00284A
:10587000F5D105E02046FFF7B9FE6FF00300C3E75E
:10588000A100491C4FF4407202EBC10001F082FA02
:105890001428EFD10120B7E770B504460D4616462F
:1058A00000BF082C02DD4FF0FF3070BD00BF00BF0D
:1058B000A100491C002202EBC10001F06BFA00F0CC
:1058C0000F00012802D06FF00400EEE700BF00BF18
:1058D000A100491C4FF4407202EBC10001F05AFADA
:1058E000132802D06FF00200DFE700BF2978687844
:1058F00061F31F200146A87861F31F200146E87874
:1059000061F31F200146481C00B111B96FF00B0074
:10591000CBE716B96FF00A00C7E7A100491C4FF4A6
:10592000406202EBC1000422294601F0E7FA31127D
:10593000A200521C4FF4805303EBC20001F062FA44
:10594000F1B2A200521C4FF4805303EBC20202F5E5
:10595000807001F057FAA100491C4FF4807202EBED
:10596000C100042101F04EFA00BFA100491C4FF410
:10597000807202EBC10001F00DFA0028F5D1012080
:10598000A04027490988084008B100208DE722E09F
:10599000A100491C4FF4007202EBC10001F0FAF9BA
:1059A00000F0080058B1A100491C4FF4007202EB4E
:1059B000C100082101F026FA6FF00C0075E7A10084
:1059C000491C4FF4407202EBC10001F0E3F910B939
:1059D0006FF0030069E7A100491C4FF4407202EB2D
:1059E000C10001F0D7F91728D2D101205DE710B529
:1059F000044600BF082C02DD4FF0FF3010BD00BF91
:105A000000BFA100491C002202EBC10001F0C2F955
:105A100000F00F0001280DD06FF00400EEE7000049
:105A2000A6000020A800002064190020AA00002081
:105A3000A400002000BFA100491C4FF4807202EBBB
:105A4000C100082101F0DEF900BFA100491C4FF49C
:105A5000807202EBC10001F09DF90028F5D1012010
:105A6000A040FE4909888143FC4801800120A040F4
:105A7000FB490988084008B10020BFE710E0A100F9
:105A8000491C4FF4007202EBC10001F083F900F0F1
:105A9000080028B12046FFF7A9FD6FF00C00ADE724
:105AA000A100491C4FF4407202EBC10001F072F9F1
:105AB0000028E4D10120A1E72DE9F0410446884601
:105AC00015460026002700BF082C02DD701EBDE829
:105AD000F08100BF00BFA100491C002202EBC10001
